:100000000C9438000C9455000C9455000C94550039
:100010000C9455000C9455000C9455000C9455000C
:100020000C9455000C9455000C9455000C945500FC
:100030000C9455000C9455000C9455000C945500EC
:100040000C9455000C9455000C9455000C945500DC
:100050000C9455000C9455000C9455000C945500CC
:100060000C9455000C9455000C9455000C945500BC
:1000700011241FBECFEFD4E0DEBFCDBF12E0A0E061
:10008000B1E0E0E8FFE002C005900D92A231B107B7
:10009000D9F722E0A2E1B2E001C01D92AC31B20773
:1000A000E1F70E9457000C94BE070C9400008FE10A
:1000B00090E00E948B000E94330200E014E1FF24D4
:1000C000F394CAE0D1E0F801F0828FEF97E1019755
:1000D000F1F700C0000080811F928F93DF93CF93D0
:1000E0000E9409038FEF9FEFEEE081509040E040C7
:1000F000E1F700C000000F900F900F900F90E3CF3A
:100100005D9BFECF8CB980E090E008955F9BFECFB1
:100110008CB190E0089589B990BD88E18AB98EE8E4
:1001200080BD66E870E080E890E00E94BE0208951D
:1001300082E086B987B98FEF8ABB089581E08BBBD7
:100140002FEF8FEF9EE0215080409040E1F700C0FC
:10015000000082E08BBB2FEF8FEF9EE021508040AC
:100160009040E1F700C0000083E08BBB17B82FEF91
:100170008FEF9EE0215080409040E1F700C00000EA
:100180001BBA089585B7806885BF80B7877C80BF1C
:1001900080B7806280BF0895EF92FF920F931F9304
:1001A000CF93DF93C7E0D0E0E82EF12C05E111E01A
:1001B00097010C2E02C0359527950A94E2F721701D
:1001C00033273F932F931F930F930E940903219787
:1001D0000F900F900F900F90CF3F8FEFD80741F700
:1001E000DF91CF911F910F91FF90EF9008954F9263
:1001F0005F926F927F928F929F92AF92BF92CF92B7
:10020000DF92EF92FF920F931F93CF93DF9388E1DA
:1002100091E09F938F930E9409030E94AE024C01CC
:100220000E94B3020F900F90612C712CC0E0D0E0BF
:100230000F2EF0E3AF2EF1E0BF2EF02D0F2EF3E5E1
:10024000CF2EF1E0DF2EF02D0F2EF0E6EF2EF1E0B5
:10025000FF2EF02D02E711E00E94AE02582EF301AE
:10026000F85E80834080841529F17F926F92BF925F
:10027000AF920E940903842D0E94CC00DF92CF929E
:100280000E940903852D0E94CC00FF92EF920E94EC
:100290000903852D84250E94CC001F930F930E9493
:1002A000090321968DB79EB70A960FB6F8949EBFA4
:1002B0000FBE8DBF9FEF691A790A611488E0780636
:1002C00059F6C4010E94B302812C912C00E010E089
:1002D0000F2EF6E7AF2EF1E0BF2EF02D0F2EF3E537
:1002E000CF2EF1E0DF2EF02D0F2EF2E7EF2EF1E012
:1002F000FF2EF02D0E94AE02782EF401F85E608091
:100300008615F1F09F928F92BF92AF920E940903DF
:10031000862D0E94CC00DF92CF920E940903872D88
:100320000E94CC00FF92EF920E9409030F5F1F4FC3
:100330008DB79EB708960FB6F8949EBF0FBE8DBFBF
:100340009FEF891A990A811488E0980699F61F93FD
:100350000F93DF93CF938DE991E09F938F930E944A
:1003600009030F900F900F900F900F900F90DF9157
:10037000CF911F910F91FF90EF90DF90CF90BF90A2
:10038000AF909F908F907F906F905F904F90089567
:100390008FE084BB98E095BB2FE332E49FE02150CF
:1003A00030409040E1F700C0000085BB2FE332E40D
:1003B0009FE0215030409040E1F700C0000094E001
:1003C00095BB2FE332E49FE0215030409040E1F7AD
:1003D00000C0000095E095BB2FE332E49FE0215080
:1003E00030409040E1F700C0000085BB2FE332E4CD
:1003F0008FE0215030408040E1F700C0000015BA86
:100400009FE322E43FE0915020403040E1F700C0FC
:10041000000083E085BB08951ABAC89B05C089EF28
:1004200091E00E941F03F9CFC99B05C08CEF91E0BA
:100430000E941F03F2CFCA9B05C081E092E00E9498
:100440001F03EBCFCB9B05C086E092E00E941F0309
:10045000E4CFCC9BE2CF8CE092E00E941F03DDCF83
:1004600008950895089585B7806885BF80B7877C13
:1004700080BF80B7806280BF8C9AEBE8F0E080811B
:1004800082608083808181608083808180688083B6
:10049000EAE8F0E0808180618083808188608083E9
:1004A00080818160808382E090E0909381008093DE
:1004B000800081E090E0909387008093860008950B
:1004C000089508958F929F92AF92BF92CF92DF923C
:1004D000EF92FF92CF93DF93EC01688179818A815B
:1004E0009B81611571058105910521F464E279ED27
:1004F0008BE597E02DE133EF41E050E00E942407C7
:1005000049015A019B01AC01A7EAB1E40E944307EB
:100510006B017C01ACEEB4EFA50194010E94510780
:10052000DC01CB018C0D9D1DAE1DBF1DB7FF03C0AF
:100530000197A109B04888839983AA83BB839F77D9
:10054000DF91CF91FF90EF90DF90CF90BF90AF9071
:100550009F908F9008950E946202089580E091E03C
:100560000E9462020895A0E0B0E0809300019093A1
:100570000101A0930201B093030108950F931F930B
:10058000CF93DF93009731F46115710519F480E082
:1005900090E03AC08B01EC016EE070E081E090E009
:1005A0000E943005FC01892B91F380E883830115BB
:1005B000110571F01387028781E88383809112020D
:1005C00090911302892B21F4F0931302E09312020D
:1005D0002097C9F0D187C08783818260838380910F
:1005E000140290911502892B71F4F0931502E09397
:1005F00014028091160290911702892B21F4F09336
:100600001702E0931602CF01DF91CF911F910F9156
:100610000895A0E0B0E0EFE0F3E00C946607AE01CF
:100620004B5F5F4FFA0161917191AF0180911402AC
:10063000909115020E944F03E2E00C9482070F9301
:100640001F93CF93DF93E0911402F0911502238161
:1006500021FF1BC08C01D0E0C0E0F80181918F0127
:100660006091140270911502DB011896ED91FC91D6
:100670001997882331F00995892B79F3DFEFCFEFB4
:10068000ECCF8AE00995892B19F08FEF9FEF02C01C
:100690008D2F9C2FDF91CF911F910F910895ABE08B
:1006A000B0E0E5E5F3E00C9456076C017B018A01AC
:1006B000FC0117821682838181FFCCC1CE01019695
:1006C0003C01F6019381F70193FD859193FF8191A0
:1006D0007F01882309F4BAC1853239F493FD8591ED
:1006E00093FF81917F01853229F4B60190E00E9449
:1006F0008A06E7CF912C212C312CFFE1F315D8F09D
:100700008B3279F038F4803279F08332A1F4232DE2
:1007100020611DC08D3261F0803369F4232D21608A
:1007200016C0832D8260382EE32DE4603E2E2AC051
:10073000F32DF8601DC037FC2DC020ED280F2A30A6
:1007400040F08E32B9F436FC81C1232D2064322E64
:1007500019C036FE06C08AE0989E200D1124922E04
:1007600011C0EAE02E9E200D1124222EF32DF062FE
:100770003F2E08C08C3621F4832D8068382E02C0AD
:10078000883641F4F70193FD859193FF81917F01B4
:100790008111B3CF982F9F7D9554933028F40C5F2F
:1007A0001F4F9FE399830DC0833631F0833771F07B
:1007B000833509F059C021C0F801808189830E5F1B
:1007C0001F4F88248394912C530113C02801F2E019
:1007D0004F0E511CF801A080B18036FE03C0692D78
:1007E00070E002C06FEF7FEFC5010E947F064C01F1
:1007F0008201F32DFF773F2E16C0280122E0420E22
:10080000511CF801A080B18036FE03C0692D70E054
:1008100002C06FEF7FEFC5010E946D064C01F32D02
:10082000F0683F2E820133FC1BC0822D90E08816B9
:100830009906B0F4B60180E290E00E948A062A94FC
:10084000F4CFF50137FC859137FE81915F01B60148
:1008500090E00E948A0621102A9421E0821A9108D1
:100860008114910471F7E8C0843611F0893641F59E
:10087000F80137FE07C060817181828193810C5F2E
:100880001F4F08C060817181072E000C880B990BE7
:100890000E5F1F4FF32DFF763F2E97FF09C09095F7
:1008A0008095709561957F4F8F4F9F4FF0683F2ED9
:1008B0002AE030E0A3010E94C606882E861845C0B3
:1008C000853731F4232D2F7EB22E2AE030E025C06B
:1008D000932D997FB92E8F36C1F018F4883579F0B1
:1008E000B5C0803719F0883721F0B0C0E92FE0613A
:1008F000BE2EB4FE0DC0FB2DF460BF2E09C034FE29
:100900000AC0292F2660B22E06C028E030E005C0BC
:1009100020E130E002C020E132E0F801B7FE07C07C
:1009200060817181828193810C5F1F4F06C060815D
:10093000718180E090E00E5F1F4FA3010E94C60608
:10094000882E8618FB2DFF773F2E36FE0DC0232DF7
:100950002E7FA22E891458F434FE0BC032FC09C03D
:10096000832D8E7EA82E05C0B82CA32C03C0B82CD6
:1009700001C0B92CA4FE0FC0FE01E80DF11D80815D
:10098000803321F49A2D997EA92E09C0A2FE06C0BB
:10099000B394B39404C08A2D867809F0B394A3FC71
:1009A00011C0A0FE06C0B21488F4280C922C9B182B
:1009B0000EC0B21460F4B60180E290E00E948A0694
:1009C000B394F7CFB21418F42B1802C0982C212C32
:1009D000A4FE10C0B60180E390E00E948A06A2FE49
:1009E00017C0A1FC03C088E790E002C088E590E052
:1009F000B6010CC08A2D867859F0A1FE02C08BE2A8
:100A000001C080E2A7FC8DE2B60190E00E948A0658
:100A1000891438F4B60180E390E00E948A069A9423
:100A2000F7CF8A94F301E80DF11D8081B60190E0C3
:100A30000E948A068110F5CF222009F442CEB60129
:100A400080E290E00E948A062A94F6CFF601868121
:100A5000978102C08FEF9FEF2B96E2E10C94720713
:100A60000F931F93CF93DF93869F8001879F100D75
:100A7000969F100D1124C8010E944C05EC010097AF
:100A800029F0A80160E070E00E947806CE01DF91B5
:100A9000CF911F910F9108950F931F93CF93DF93E1
:100AA0008230910510F482E090E0E0911A02F0911A
:100AB0001B0220E030E0A0E0B0E0309719F1408167
:100AC00051810281138148175907C8F0841795078F
:100AD00069F4109731F012960C93129713961C93A9
:100AE00027C000931A0210931B0222C02115310562
:100AF00019F04217530718F49A01BD01EF01DF0105
:100B0000F801DBCF21153105F9F0281B390B243012
:100B1000310580F48A819B816115710521F0FB010B
:100B20009383828304C090931B0280931A02FE0178
:100B3000329644C0FE01E20FF31F8193919322503D
:100B40003109398328833AC0209118023091190263
:100B5000232B41F4209106013091070130931902B3
:100B600020931802209104013091050121153105CF
:100B700041F42DB73EB74091080150910901241B63
:100B8000350BE0911802F0911902E217F307A0F477
:100B90002E1B3F0B2817390778F0AC014E5F5F4FD3
:100BA0002417350748F04E0F5F1F509319024093EA
:100BB00018028193919302C0E0E0F0E0CF01DF9151
:100BC000CF911F910F910895CF93DF93009709F470
:100BD00081C0FC01329713821282A0911A02B09157
:100BE0001B02109781F420813181820F931F209185
:100BF0001802309119022817390751F5F09319029C
:100C0000E093180267C0ED0120E030E0CE17DF0767
:100C100040F44A815B819E0141155105F1F0EA01E2
:100C2000F5CFD383C28340815181840F951FC817AC
:100C3000D90759F488819981840F951F0296918371
:100C400080838A819B81938382832115310529F4D6
:100C5000F0931B02E0931A023DC0E901FB83EA8393
:100C600049915991C40FD51FEC17FD0761F480819C
:100C70009181840F951F0296E9019983888382816F
:100C800093819B838A83E0E0F0E012968D919C91A2
:100C90001397009719F0FD01DC01F7CF8D919C911E
:100CA00011979D012E5F3F4F820F931F20911802D5
:100CB000309119022817390769F4309729F41092F6
:100CC0001B0210921A0202C013821282B093190200
:100CD000A0931802DF91CF910895FC010590615017
:100CE00070400110D8F7809590958E0F9F1F089542
:100CF000DC0101C06D9341505040E0F70895FC01C4
:100D00006150704001900110D8F7809590958E0F3A
:100D10009F1F08950F931F93CF93DF93FB012381B0
:100D200021FD03C08FEF9FEF2CC022FF16C046812C
:100D30005781248135814217530744F4A081B18142
:100D40009D012F5F3F4F318320838C932681378114
:100D50002F5F3F4F3783268314C08B01EC01FB01CB
:100D60000084F185E02D0995892BE1F6D8011696CE
:100D70008D919C911797019617969C938E93169739
:100D8000CE01DF91CF911F910F910895FA01AA270B
:100D9000283051F1203181F1E8946F936E7F6E5FBE
:100DA0007F4F8F4F9F4FAF4FB1E03ED0B4E03CD06C
:100DB000670F781F891F9A1FA11D680F791F8A1F4F
:100DC000911DA11D6A0F711D811D911DA11D20D0B6
:100DD00009F468943F912AE0269F11243019305D70
:100DE0003193DEF6CF010895462F4770405D419361
:100DF000B3E00FD0C9F7F6CF462F4F70405D4A33AE
:100E000018F0495D31FD4052419302D0A9F7EACF75
:100E1000B4E0A6959795879577956795BA95C9F7A4
:100E200000976105710508959B01AC010A2E069497
:100E30005795479537952795BA95C9F7620F731F50
:100E4000841F951FA01D0895052E97FB1EF4009486
:100E50000E943B0757FD07D00E948D0707FC03D077
:100E60004EF40C943B0750954095309521953F4F9B
:100E70004F4F5F4F089590958095709561957F4F86
:100E80008F4F9F4F08950E94AF07A59F900DB49F6D
:100E9000900DA49F800D911D11240895B7FF0C940F
:100EA00043070E944307821B930B08952F923F92A2
:100EB0004F925F926F927F928F929F92AF92BF926A
:100EC000CF92DF92EF92FF920F931F93CF93DF9316
:100ED000CDB7DEB7CA1BDB0B0FB6F894DEBF0FBE73
:100EE000CDBF09942A88398848885F846E847D84C0
:100EF0008C849B84AA84B984C884DF80EE80FD80C2
:100F00000C811B81AA81B981CE0FD11D0FB6F89437
:100F1000DEBF0FBECDBFED010895A1E21A2EAA1BC0
:100F2000BB1BFD010DC0AA1FBB1FEE1FFF1FA21799
:100F3000B307E407F50720F0A21BB30BE40BF50B96
:100F4000661F771F881F991F1A9469F7609570951F
:100F5000809590959B01AC01BD01CF010895A29FA2
:100F6000B001B39FC001A39F700D811D1124911D7D
:100F7000B29F700D811D1124911D0895F894FFCF2B
:100F80000100000000001C02200056616C75653AEB
:100F90002025640A002564005374617274696E67C9
:100FA000205352414D20746573742E2E2E0A0D006D
:100FB0005772697465207068617365206572726F1D
:100FC000723A206578745F72616D5B2534645D20D0
:100FD0003D2000202873686F756C642062652000D6
:100FE000204D69736D617463686564206269747310
:100FF0002000290A0D0052657472696576616C20C3
:101000007068617365206572726F723A20657874DA
:101010005F72616D5B2534645D203D200053524159
:101020004D207465737420636F6D706C65746564B6
:101030002077697468200A0D253464206572726F08
:10104000727320696E2077726974652070686173AD
:101050006520616E64200A0D253464206572726F0C
:10106000727320696E2072657472696576616C2096
:1010700070686173650A0A0D00555000444F574E61
:10108000004C45465400524947485400505245537D
:0210900053000B
:00000001FF
