:100000000C9460030C947D030C947D030C947D038D
:100010000C947D030C947D030C947D030C947D0360
:100020000C947D030C947D030C947D030C947D0350
:100030000C947D030C947D030C947D030C947D0340
:100040000C947D030C947D030C947D030C947D0330
:100050000C947D030C947D030C947D030C947D0320
:100060000C947D030C947D030C947D030C947D0310
:1000700000000000005C00000C000C007C287C28C4
:1000800058DC68002410480028542840000C000068
:10009000007884008478000054385400107C1000EC
:1000A00080400000101010000040000060100C00A4
:1000B00038543800487C40004864580044542C00B0
:1000C0001C107C005C5424003854240064140C0080
:1000D00068542C0048543800004800008048000054
:1000E0001028440028282800442810000454080040
:1000F00038445C00781478007C5428003844280088
:100100007C4438007C5444007C140400384474005F
:100110007C107C00447C440020403C007C106C003F
:100120007C4040007C187C0078103C00384438004B
:100130007C1408003844B8007C146800485424003B
:10014000047C04007C407C003C603C007C307C00F3
:100150006C106C000C700C0064544C00007C44006B
:100160000C106000447C00000804080080808000BF
:1001700000040800304878007C48300030484800CF
:1001800030487C00306850001078140090A8780047
:100190007C08700050744000808074007C106800FF
:1001A000447C4000781078007808700030483000B7
:1001B000F82810003048F80078100800505828003F
:1001C000083C4800384078003840380078207800F3
:1001D0004830480098A0780048685800107884009B
:1001E000007C00008478100008040804000000006F
:1001F0000000005F00000007000700147F147F1458
:10020000242A7F2A1223130864623649552250009B
:1002100005030000001C2241000041221C00082AA6
:100220001C2A0808083E080800503000000808088A
:100230000808006060000020100804023E51494593
:100240003E00427F400042615149462141454B31C9
:100250001814127F1027454545393C4A4949300159
:10026000710905033649494936064949291E0036B0
:100270003600000056360000000814224114141401
:10028000141441221408000201510906324979412F
:100290003E7E1111117E7F494949363E414141223E
:1002A0007F4141221C7F494949417F090901013EA3
:1002B000414151327F0808087F00417F41002040C2
:1002C000413F017F081422417F404040407F0204AB
:1002D000027F7F0408107F3E4141413E7F090909AA
:1002E000063E4151215E7F09192946464949493157
:1002F00001017F01013F4040403F1F2040201F7F00
:100300002018207F631408146303047804036151E8
:1003100049454300007F4141020408102041417FCC
:100320000000040201020440404040400001020479
:100330000020545454787F4844443838444444207E
:10034000384444487F3854545418087E0901020840
:100350001454543C7F0804047800447D400020403D
:10036000443D00007F10284400417F40007C041879
:1003700004787C0804047838444444387C14141409
:1003800008081414187C7C080404084854545420A9
:10039000043F4440203C4040207C1C2040201C3C2A
:1003A0004030403C44281028440C5050503C446499
:1003B000544C44000836410000007F0000004136E4
:1003C000080002010302010000000000000000001C
:1003D000065F5F0600000000070700070700001423
:1003E0007F7F147F7F1400242E6B6B3A120000462F
:1003F0006630180C666200307A4F5D377A48000428
:1004000007030000000000001C3E634100000000E4
:1004100041633E1C000000082A3E1C1C3E2A0808BE
:10042000083E3E0808000000A0E060000000000850
:100430000808080808000000006060000000006074
:1004400030180C060301003E7F594D7F3E000042EC
:10045000427F7F40400000627359496F660000226E
:100460006349497F360000181C16137F7F10002750
:100470006745457D3900003C7E4B497930000003DB
:100480006371190F070000367F49497F3600000667
:100490004F49693F1E000000006C6C000000000026
:1004A000A0EC6C00000000081C3663410000001442
:1004B00014141414140000004163361C08000002D8
:1004C0000351590F0600003E7F415D5D1F1E007CF9
:1004D0007E13137E7C0000417F7F49497F36001CDC
:1004E0003E634141632200417F7F41637F1C0041A5
:1004F0007F7F495D416300417F7F491D0103001CEF
:100500003E6341517372007F7F08087F7F000000C7
:10051000417F7F41000000307040417F3F0100413A
:100520007F7F081C776300417F7F41406070007FC0
:100530007F060C067F7F007F7F060C187F7F001CE4
:100540003E6341633E1C00417F7F49090F06001E48
:100550003F21717F5E0000417F7F19396F46002681
:10056000674D597B32000003417F7F410300007FCC
:100570007F40407F7F00001F3F60603F1F00007F83
:100580007F3018307F7F0063771C081C776300077B
:100590004F78784F0700006773594D47637100002B
:1005A0007F7F41410000000103060C18306000000D
:1005B00041417F7F000000080C0603060C08008004
:1005C000808080808080800000030704000000207D
:1005D0007454543C784000413F7F44447C38003898
:1005E0007C44446C280000307848493F7F40003804
:1005F0007C54545C180000487E7F49030200009838
:10060000BCA4A4F87C0400417F7F08047C7800002F
:10061000447D7D4000000040C484FD7D0000004119
:100620007F7F10386C440000417F7F400000007CD9
:100630007C0C180C7C78007C7C04047C78000038EE
:100640007C44447C38000084FCF8A4243C18001846
:100650003C24A4F8FC8400447C78441C1800004826
:100660005C54547424000000043E7F442400003C89
:100670007C40403C7C40001C3C60603C1C00003CDA
:100680007C6030607C3C00446C3810386C44009CCA
:10069000BCA0A0FC7C00004C64745C4C64000008AE
:1006A000083E7741410000000000777700000041DC
:1006B00041773E0808000002030103020301000025
:1006C00011241FBECFEFD4E0DEBFCDBF12E0A0E00B
:1006D000B1E0E4E4F1E202C005900D92AA3BB1075B
:1006E000D9F722E0AAEBB2E001C01D92A83CB20704
:1006F000E1F70E947F030C94A0100C940000CF93AC
:10070000DF93CDB7DEB76E970FB6F894DEBF0FBE9E
:10071000CDBF8FE190E00E9471040E947E040E9490
:10072000A804BA98C29A0E9479060E94B7070E944C
:10073000D7060E94760A0E94610A60E680E60E945F
:10074000DE0963E083E00E94DE0980E00E94480A3F
:100750001092BD021092BC020E943B081092BB0294
:100760001092BA02FE0131968AE0DF011D928A954D
:10077000E9F782E0898381E08A831FC08091BA0211
:100780009091BB02892B39F40E943B080E947908A2
:100790000E94F10812C00E9456080E947908BC010C
:1007A000CE0145960E945D098AE0FE017596DE0144
:1007B000119601900D928A95E1F78091BC0290917B
:1007C000BD02892BD9F2CE0101960E94790ABFEFB2
:1007D0002FEF8EE0B15020408040E1F700C00000D4
:1007E0000F2EFCE28F2EF1E09F2EF02D0F2EF5E361
:1007F000AF2EF1E0BF2EF02D6E019DE0C90ED11C91
:100800000F2EF2E46F2EF1E07F2EF02D552453943D
:100810000DE411E08CE20E94CC0980FF39C0CE01CA
:100820000B960E94BB0AED840E2C000CFF08C7013A
:100830000E948E071E141F0454F00E94D7066DE21A
:1008400084E00E94E1068EE091E00E940F078AE1B9
:1008500091E00E94100C8B851F928F939F928F9234
:100860000E94FA0B8C851F928F93BF92AF920E94C9
:10087000FA0BDF92CF927F926F920E94FA0B60E0A8
:100880008CE20E94DE090FB6F894DEBF0FBECDBF2A
:100890000E94EA05F62EE82E0E9455060E941706D1
:1008A0000E9429060E941E065B8694E09C87ED86C6
:1008B000FE866F87888BCE010B960E94790A1F9364
:1008C0000F930E94FA0B0F900F90A4CF5D9BFECF69
:1008D0008CB980E090E008955F9BFECF8CB190E0F2
:1008E000089589B990BD88E18AB98EE880BD6CE62B
:1008F00074E086E694E00E94AF0B089582E086B92A
:1009000087B98FEF8ABB089581E08BBB2FEF8FEF04
:100910009EE0215080409040E1F700C0000082E05E
:100920008BBB2FEF8FEF9EE0215080409040E1F78E
:1009300000C0000083E08BBB17B82FEF8FEF9EE065
:10094000215080409040E1F700C000001BBA08959C
:1009500085B7806885BF80B7877C80BF80B780629D
:1009600080BF0895EF92FF920F931F93CF93DF9371
:10097000C7E0D0E0E82EF12C0EE511E097010C2E37
:1009800002C0359527950A94E2F7217033273F93EB
:100990002F931F930F930E94FA0B21970F900F90A4
:1009A0000F900F90CF3F8FEFD80741F7DF91CF9196
:1009B0001F910F91FF90EF9008954F925F926F9269
:1009C0007F928F929F92AF92BF92CF92DF92EF92DF
:1009D000FF920F931F93CF93DF9381E691E09F9354
:1009E0008F930E94FA0B0E949F0B4C010E94A40B54
:1009F0000F900F90612C712CC0E0D0E00F2EF9E722
:100A0000AF2EF1E0BF2EF02D0F2EFCE9CF2EF1E03E
:100A1000DF2EF02D0F2EF9EAEF2EF1E0FF2EF02D54
:100A20000BEB11E00E949F0B582EF301F85E8083C0
:100A30004080841529F17F926F92BF92AF920E94FD
:100A4000FA0B842D0E94B204DF92CF920E94FA0B1F
:100A5000852D0E94B204FF92EF920E94FA0B852D21
:100A600084250E94B2041F930F930E94FA0B2196D3
:100A70008DB79EB70A960FB6F8949EBF0FBE8DBF76
:100A80009FEF691A790A611488E0780659F6C40163
:100A90000E94A40B812C912C00E010E00F2EFFEBA4
:100AA000AF2EF1E0BF2EF02D0F2EFCE9CF2EF1E09E
:100AB000DF2EF02D0F2EFBEBEF2EF1E0FF2EF02DB1
:100AC0000E949F0B782EF401F85E60808615F1F08D
:100AD0009F928F92BF92AF920E94FA0B862D0E9436
:100AE000B204DF92CF920E94FA0B872D0E94B204CB
:100AF000FF92EF920E94FA0B0F5F1F4F8DB79EB7C8
:100B000008960FB6F8949EBF0FBE8DBF9FEF891A4F
:100B1000990A811488E0980699F61F930F93DF9342
:100B2000CF9386EE91E09F938F930E94FA0B0F90E4
:100B30000F900F900F900F900F90DF91CF911F911A
:100B40000F91FF90EF90DF90CF90BF90AF909F906C
:100B50008F907F906F905F904F900895109200104B
:100B60002FE382E49FE0215080409040E1F700C0F5
:100B70000000109200122FE382E49FE02150804099
:100B80009040E1F700C00000109200142FE382E4CF
:100B90009FE0215080409040E1F700C0000010929B
:100BA00000182FEB8CE595E1215080409040E1F753
:100BB00000C000000895CF9380E00E949606C82FE1
:100BC00081E00E949606282F6C2F70E0822F90E023
:100BD000CF910895CF92DF92EF92FF920E94DB05B2
:100BE0006B017C0144E64E9D90014F9D300D112418
:100BF000A1E8B0E80E94300BFC01EE0FEF2FEE1FD2
:100C0000FF0BF1954C9D90014D9D300D11240E94DC
:100C1000300BAC01440F452F441F550B5195BF01BC
:100C2000CB01BA01FF90EF90DF90CF90089586B38B
:100C300082FB882780F991E08927089536B326B38F
:100C400070E090E033FB662760F921FB882780F98C
:100C500008950E94DB056436710560F0693C7105FA
:100C600060F48436910560F0893C910560F484E07D
:100C700090E0089580E090E0089581E090E008958C
:100C800083E090E0089582E090E00895CF9382E0C1
:100C90000E949606C82F83E00E949606282F622F96
:100CA00070E08C2F90E0CF910895CF92DF92EF9279
:100CB000FF920E9446066B017C0144E64E9DC001F6
:100CC0004F9D900D11242FEF30E0B9010E941C0BB5
:100CD000FB014C9DC0014D9D900D1124B9010E9456
:100CE0001C0B9B01B901CF01FF90EF90DF90CF90DB
:100CF00008958C9AEBE8F0E08081826080838081A7
:100D000081608083808180648083EAE8F0E0808174
:100D1000806180838081886080838081816080831E
:100D2000109287001092860016BC0895109200144D
:100D3000482F50E020E030E0E0E0F4E180812F5FD8
:100D40003F4F42175307D4F70895E0910201F09105
:100D5000030180830895E0910001F09101018083F7
:100D60000895E0910201F091030180558083089578
:100D7000E0910201F0910301982F9F709083E09120
:100D80000201F091030182958F70805F8083089546
:100D90000E94B10680E00E94B80680E890E0E091F1
:100DA0000001F091010110820197C9F70895CF93D6
:100DB000C0E08C2F0E94C806CF5FC830D1F7CF911A
:100DC0000895CF93C62F0E94B1068C2F0E94B806BB
:100DD000CF910895E0910001F09101018083089581
:100DE000082E000C990B9C01220F331F220F331F7A
:100DF000820F931F20E030E0805A9109FC01E20F3E
:100E0000F31FE451FE4FE491A0910001B091010164
:100E1000EC932F5F3F4F2530310581F70895CF9335
:100E2000DF93EC018881882331F021960E94F0063F
:100E300089918111FBCFDF91CF9108950E94E10646
:100E4000E0910001F091010188E18083E0910001CF
:100E5000F09101018083E0910001F09101019EE792
:100E60009083E0910001F09101019CE39083E09177
:100E70000001F0910101808308950E94E106E09154
:100E80000001F09101011082E0910001F091010157
:100E90001082E0910001F09101011082E0910001C7
:100EA000F09101011082E0910001F09101011082A6
:100EB00008950E94E106E0910001F09101018CE0AB
:100EC0008083E0910001F09101019EE19083E09127
:100ED0000001F09101012FE32083E0910001F091E6
:100EE00001013EE73083E0910001F09101014CEFF8
:100EF0004083E0910001F09101013083E091000115
:100F0000F09101012083E0910001F09101019083B3
:100F1000E0910001F091010180830895EF92FF922A
:100F20001F93CF93DF937C010E94D70664E181E099
:100F30000E94E10682E492E00E940F078FEFE81A18
:100F4000F80A82E0E816F10464F014E1C1E0D0E0B0
:100F5000612F84E00E94590721961C5ECE15DF05A3
:100F6000BCF3DF91CF911F91FF90EF900895E09136
:100F70000201F09103018EEA8083E0910201F09179
:100F8000030181EA8083E0910201F09103018AED7F
:100F90008083E0910201F091030182E18083E0917E
:100FA0000201F091030188EC8083E0910201F0914D
:100FB000030188EA8083E0910201F09103018FE34D
:100FC0008083E0910201F091030185ED8083E0913F
:100FD0000201F091030180E88083E0910201F09129
:100FE000030181E88083E0910201F091030180E533
:100FF0008083E0910201F091030189ED8083E0910B
:101000000201F091030181E28083E0910201F091FD
:10101000030180E28083E0910201F091030182E00C
:101020008083E0910201F09103018BED8083E091D8
:101030000201F091030180E38083E0910201F091CD
:1010400003018DEA8083E0910201F0910301108297
:10105000E0910201F091030184EA8083E0910201B2
:10106000F091030186EA8083E0910201F09103018F
:101070008FEA808308950E94D70664E180E00E9491
:10108000E1068FE492E00E940F076EE182E00E9489
:10109000E1068FE592E00E940F076EE184E00E9476
:1010A000E1068AE692E00E940F0708950E94D706A3
:1010B00064E180E00E94E1068CE792E00E940F0765
:1010C0006EE182E00E94E1068FE892E00E940F0745
:1010D0006EE184E00E94E10684E992E00E940F073D
:1010E0006EE186E00E94E1068BE992E00E940F0724
:1010F0000895DF92EF92FF920F931F93CF93DF93A8
:101100000E941706C82F6AE080E00E941E07C130C7
:1011100009F453C0C0E0D0E011E0D12C0E941706C2
:10112000082F0E94EA057C01812F2BE0E216F104D2
:1011300008F08D2D8823D1F0812FC730D10508F01C
:101140008D2D882399F021966AE08C2F81500E9482
:101150003D076AE08C2F0E941E078FE39DE023E08D
:10116000815090402040E1F700C00000212FCE01C7
:101170000197079708F02D2D2223D9F0812F9AE5AA
:10118000E916F10408F48D2D882399F021976AE07F
:101190008C2F8F5F0E943D076AE08C2F0E941E07F4
:1011A0002FE38DE093E0215080409040E1F700C0B4
:1011B0000000013009F0B2CF02C0C0E0D0E02FE360
:1011C0008DE093E0215080409040E1F700C00000A6
:1011D000CE01DF91CF911F910F91FF90EF90DF90A3
:1011E0000895CF9381309105F9F01CF4892B41F0DB
:1011F0005EC08230910519F1049709F444C057C0CC
:101200000E94D70660E083E00E94E10680EA92E057
:101210000E940F072FE78AE196E02150804090401E
:10122000E1F700C0000047C00E94D70660E083E0FD
:101230000E94E10687EA92E00E940F073CC00E94EC
:10124000D706C0E064E18C2F0E94E1068CEA92E0B0
:101250000E940F072FE38DE093E0215080409040E3
:10126000E1F700C000000E94D706CF5FC83051F7F9
:1012700085E090E00E948E0781E090E09093BD02AF
:101280008093BC0218C00E94D7060E94560881E0D5
:1012900090E09093BB028093BA022FE38DE093E03D
:1012A000215080409040E1F700C0000004C010923F
:1012B000BB021092BA02CF910895CF93DF93EC0155
:1012C0008AE0FE0111928A95E9F76230710559F1C1
:1012D0003CF46115710559F061307105B1F03BC006
:1012E0006430710541F16630710569F134C00E94C6
:1012F000D70660E083E00E94E10680EA92E00E9467
:101300000F0780E090E020E02BC00E94D70660E04D
:1013100083E00E94E10687EA92E00E940F0780E0E6
:1013200090E020E01DC01092BB021092BA0280E053
:1013300091E022E015C01092BB021092BA0281E047
:1013400091E022E00DC01092BB021092BA0282E03E
:1013500091E022E005C00E94560880E090E020E085
:10136000288399838A83CE01DF91CF910895C49A0F
:101370000895C498089580EB87BB81E58DB90E94DC
:10138000B70908958FB9779BFECF08958FEF8FB976
:10139000779BFECF8FB10895CF93C82F0E94B909D4
:1013A00083E00E94C2098C2F0E94C2090E94C609D4
:1013B000C82F0E94B7098C2FCF910895CF93DF9348
:1013C000D82FC62F0E94B90982E00E94C2098D2F32
:1013D0000E94C2098C2F0E94C2090E94B709DF91A6
:1013E000CF910895CF93C82F0E94B909C13041F021
:1013F00028F0C23039F0C33039F008C081E807C0A6
:1014000082E805C084E803C087E801C080E00E944C
:10141000C2090E94B709CF910895CF930E94B909DC
:1014200080EA0E94C2090E94C609C82F0E94B7091B
:101430008C2FCF9108951F93CF93DF93182FC62F32
:10144000D42F0E94B90985E00E94C209812F0E9411
:10145000C2098D2F0E94C2098C2F0E94C2090E94CE
:10146000B709DF91CF911F9108950E94B90980ECCF
:101470000E94C2090E94B70908950E94BB090E94F8
:10148000350A89EF90E00197F1F700C00000089558
:10149000803459F018F4803231F00DC0803639F0C4
:1014A000803839F008C060E207C060E405C060E63B
:1014B00003C060E801C060E040EE8FE00E941B0ABC
:1014C000089580E80E94480A63EC8AE20E94DE09DF
:1014D0006BE989E20E94DE0963E088E20E94DE098E
:1014E00008958EE00E94CC09807E08950E943D0AF6
:1014F0000895CF92DF92EF92FF921F93CF93DF93E5
:101500006C01FC01608166956695669581E30E9499
:10151000DE09F6016081F0E26F9FB001112482E3E1
:101520000E94DE09F601618185E30E94DE09F60171
:1015300081818823A9F07601F2E0EF0EF11C16E319
:10154000C0E0D0E0F70161917F01812F0E94DE09A8
:1015500021961F5FF601818190E0C817D90794F3A7
:1015600080E00E94F209DF91CF911F91FF90EF90F0
:10157000DF90CF9008959F92AF92BF92CF92DF926B
:10158000EF92FF920F931F93CF93DF93CDB7DEB708
:101590002A970FB6F894DEBF0FBECDBF5C01FE01E7
:1015A00031968AE0DF011D928A95E9F782E60E9472
:1015B000CC09082F81E60E94CC0902950695077098
:1015C000880F880F880F080F85E60E94CC09982E97
:1015D0008823A9F07E01B3E0EB0EF11C9E01280FD9
:1015E000311DF90133966F0116E6812F0E94CC0957
:1015F000D7018D937D011F5FAC15BD05B1F7098340
:101600009A828AE0FE013196D50101900D928A9569
:10161000E1F7C5012A960FB6F894DEBF0FBECDBF25
:10162000DF91CF911F910F91FF90EF90DF90CF90BE
:10163000BF90AF909F90089597FB072E16F40094EB
:1016400007D077FD09D00E943F0B07FC05D03EF480
:10165000909581959F4F0895709561957F4F08955E
:10166000A29FB001B39FC001A39F700D811D1124E3
:10167000911DB29F700D811D1124911D0895AA1B0B
:10168000BB1B51E107C0AA1FBB1FA617B70710F06D
:10169000A61BB70B881F991F5A95A9F7809590959F
:1016A000BC01CD0108958F929F92AF92BF92CF92CD
:1016B000DF92EF92FF92CF93DF93EC016881798103
:1016C0008A819B81611571058105910521F464E290
:1016D00079ED8BE597E02DE133EF41E050E00E949A
:1016E000151049015A019B01AC01A7EAB1E40E941F
:1016F00034106B017C01ACEEB4EFA50194010E94A3
:101700004210DC01CB018C0D9D1DAE1DBF1DB7FF2E
:1017100003C00197A109B04888839983AA83BB833A
:101720009F77DF91CF91FF90EF90DF90CF90BF90A8
:10173000AF909F908F9008950E94530B089584E07E
:1017400091E00E94530B0895A0E0B0E08093040163
:1017500090930501A0930601B093070108950F939C
:101760001F93CF93DF93009731F46115710519F43E
:1017700080E090E03AC08B01EC016EE070E081E027
:1017800090E00E94210EFC01892B91F380E8838375
:101790000115110571F01387028781E88383809119
:1017A000BE029091BF02892B21F4F093BF02E09317
:1017B000BE022097C9F0D187C0878381826083836E
:1017C0008091C0029091C102892B71F4F093C10203
:1017D000E093C0028091C2029091C302892B21F450
:1017E000F093C302E093C202CF01DF91CF911F912A
:1017F0000F910895A0E0B0E0E0E0FCE00C945710F9
:10180000AE014B5F5F4FFA0161917191AF01809121
:10181000C0029091C1020E94400CE2E00C9473104F
:101820000F931F93CF93DF93E091C002F091C10219
:10183000238121FF1BC08C01D0E0C0E0F801819121
:101840008F016091C0027091C102DB011896ED9189
:10185000FC911997882331F00995892B79F3DFEFF3
:10186000CFEFECCF8AE00995892B19F08FEF9FEF2E
:1018700002C08D2F9C2FDF91CF911F910F91089562
:10188000ABE0B0E0E6E4FCE00C9447106C017B01B7
:101890008A01FC0117821682838181FFCCC1CE01AF
:1018A00001963C01F6019381F70193FD859193FF29
:1018B00081917F01882309F4BAC1853239F493FDFF
:1018C000859193FF81917F01853229F4B60190E0E3
:1018D0000E947B0FE7CF912C212C312CFFE1F315D7
:1018E000D8F08B3279F038F4803279F08332A1F479
:1018F000232D20611DC08D3261F0803369F4232DCA
:10190000216016C0832D8260382EE32DE4603E2EC8
:101910002AC0F32DF8601DC037FC2DC020ED280F24
:101920002A3040F08E32B9F436FC81C1232D206478
:10193000322E19C036FE06C08AE0989E200D112472
:10194000922E11C0EAE02E9E200D1124222EF32D9E
:10195000F0623F2E08C08C3621F4832D8068382E2B
:1019600002C0883641F4F70193FD859193FF819180
:101970007F018111B3CF982F9F7D9554933028F428
:101980000C5F1F4F9FE399830DC0833631F083377F
:1019900071F0833509F059C021C0F8018081898335
:1019A0000E5F1F4F88248394912C530113C028018C
:1019B000F2E04F0E511CF801A080B18036FE03C04A
:1019C000692D70E002C06FEF7FEFC5010E94700FBC
:1019D0004C018201F32DFF773F2E16C0280122E033
:1019E000420E511CF801A080B18036FE03C0692D63
:1019F00070E002C06FEF7FEFC5010E945E0F4C01E7
:101A0000F32DF0683F2E820133FC1BC0822D90E045
:101A100088169906B0F4B60180E290E00E947B0F30
:101A20002A94F4CFF50137FC859137FE81915F014F
:101A3000B60190E00E947B0F21102A9421E0821AC7
:101A400091088114910471F7E8C0843611F0893649
:101A500041F5F80137FE07C0608171818281938171
:101A60000C5F1F4F08C060817181072E000C880B2E
:101A7000990B0E5F1F4FF32DFF763F2E97FF09C086
:101A800090958095709561957F4F8F4F9F4FF0682F
:101A90003F2E2AE030E0A3010E94B70F882E86185F
:101AA00045C0853731F4232D2F7EB22E2AE030E059
:101AB00025C0932D997FB92E8F36C1F018F4883543
:101AC00079F0B5C0803719F0883721F0B0C0E92F20
:101AD000E061BE2EB4FE0DC0FB2DF460BF2E09C028
:101AE00034FE0AC0292F2660B22E06C028E030E05E
:101AF00005C020E130E002C020E132E0F801B7FE8D
:101B000007C060817181828193810C5F1F4F06C085
:101B10006081718180E090E00E5F1F4FA3010E9401
:101B2000B70F882E8618FB2DFF773F2E36FE0DC08F
:101B3000232D2E7FA22E891458F434FE0BC032FCC4
:101B400009C0832D8E7EA82E05C0B82CA32C03C0FF
:101B5000B82C01C0B92CA4FE0FC0FE01E80DF11D88
:101B60008081803321F49A2D997EA92E09C0A2FE8E
:101B700006C0B394B39404C08A2D867809F0B39458
:101B8000A3FC11C0A0FE06C0B21488F4280C922C4D
:101B90009B180EC0B21460F4B60180E290E00E947F
:101BA0007B0FB394F7CFB21418F42B1802C0982C03
:101BB000212CA4FE10C0B60180E390E00E947B0FB0
:101BC000A2FE17C0A1FC03C088E790E002C088E530
:101BD00090E0B6010CC08A2D867859F0A1FE02C0B3
:101BE0008BE201C080E2A7FC8DE2B60190E00E948A
:101BF0007B0F891438F4B60180E390E00E947B0FDC
:101C00009A94F7CF8A94F301E80DF11D8081B60113
:101C100090E00E947B0F8110F5CF222009F442CE84
:101C2000B60180E290E00E947B0F2A94F6CFF60185
:101C30008681978102C08FEF9FEF2B96E2E10C9493
:101C400063100F931F93CF93DF93869F8001879F2D
:101C5000100D969F100D1124C8010E943D0EEC013D
:101C6000009729F0A80160E070E00E94690FCE01A2
:101C7000DF91CF911F910F9108950F931F93CF93F1
:101C8000DF938230910510F482E090E0E091C6028B
:101C9000F091C70220E030E0A0E0B0E0309719F109
:101CA000408151810281138148175907C8F0841778
:101CB000950769F4109731F012960C9312971396CA
:101CC0001C9327C00093C6021093C70222C021159F
:101CD000310519F04217530718F49A01BD01EF01BD
:101CE000DF01F801DBCF21153105F9F0281B390B95
:101CF0002430310580F48A819B816115710521F0C2
:101D0000FB019383828304C09093C7028093C60231
:101D1000FE01329644C0FE01E20FF31F81939193BE
:101D200022503109398328833AC02091C40230916E
:101D3000C502232B41F420910A0130910B0130930D
:101D4000C5022093C4022091080130910901211598
:101D5000310541F42DB73EB740910C0150910D0172
:101D6000241B350BE091C402F091C502E217F30782
:101D7000A0F42E1B3F0B2817390778F0AC014E5FFB
:101D80005F4F2417350748F04E0F5F1F5093C50271
:101D90004093C4028193919302C0E0E0F0E0CF0150
:101DA000DF91CF911F910F910895CF93DF9300970B
:101DB00009F481C0FC01329713821282A091C602FD
:101DC000B091C702109781F420813181820F931F57
:101DD0002091C4023091C5022817390751F5F093BC
:101DE000C502E093C40267C0ED0120E030E0CE17E9
:101DF000DF0740F44A815B819E0141155105F1F0F6
:101E0000EA01F5CFD383C28340815181840F951FAE
:101E1000C817D90759F488819981840F951F0296B4
:101E2000918380838A819B819383828321153105ED
:101E300029F4F093C702E093C6023DC0E901FB8399
:101E4000EA8349915991C40FD51FEC17FD0761F43E
:101E500080819181840F951F0296E901998388837F
:101E6000828193819B838A83E0E0F0E012968D91DA
:101E70009C911397009719F0FD01DC01F7CF8D912C
:101E80009C9111979D012E5F3F4F820F931F2091D0
:101E9000C4023091C5022817390769F4309729F434
:101EA0001092C7021092C60202C013821282B0932F
:101EB000C502A093C402DF91CF910895FC01059063
:101EC000615070400110D8F7809590958E0F9F1F3C
:101ED0000895DC0101C06D9341505040E0F7089532
:101EE000FC016150704001900110D8F780959095E9
:101EF0008E0F9F1F08950F931F93CF93DF93FB01C6
:101F0000238121FD03C08FEF9FEF2CC022FF16C05D
:101F100046815781248135814217530744F4A081BB
:101F2000B1819D012F5F3F4F318320838C932681A8
:101F300037812F5F3F4F3783268314C08B01EC011D
:101F4000FB010084F185E02D0995892BE1F6D8018C
:101F500016968D919C911797019617969C938E9348
:101F60001697CE01DF91CF911F910F910895FA013D
:101F7000AA27283051F1203181F1E8946F936E7FC8
:101F80006E5F7F4F8F4F9F4FAF4FB1E03ED0B4E0B9
:101F90003CD0670F781F891F9A1FA11D680F791FFA
:101FA0008A1F911DA11D6A0F711D811D911DA11D0B
:101FB00020D009F468943F912AE0269F112430191B
:101FC000305D3193DEF6CF010895462F4770405DB6
:101FD0004193B3E00FD0C9F7F6CF462F4F70405D65
:101FE0004A3318F0495D31FD4052419302D0A9F7C0
:101FF000EACFB4E0A6959795879577956795BA95BA
:10200000C9F700976105710508959B01AC010A2E7F
:1020100006945795479537952795BA95C9F7620F56
:10202000731F841F951FA01D0895052E97FB1EF496
:1020300000940E942C1057FD07D00E947E1007FCD0
:1020400003D04EF40C942C1050954095309521956A
:102050003F4F4F4F5F4F08959095809570956195D4
:102060007F4F8F4F9F4F08950E94300BA59F900D7B
:10207000B49F900DA49F800D911D11240895B7FF6A
:102080000C9434100E943410821B930B08952F92ED
:102090003F924F925F926F927F928F929F92AF92F8
:1020A000BF92CF92DF92EF92FF920F931F93CF9345
:1020B000DF93CDB7DEB7CA1BDB0B0FB6F894DEBFDC
:1020C0000FBECDBF09942A88398848885F846E8402
:1020D0007D848C849B84AA84B984C884DF80EE804C
:1020E000FD800C811B81AA81B981CE0FD11D0FB655
:1020F000F894DEBF0FBECDBFED010895A1E21A2E08
:10210000AA1BBB1BFD010DC0AA1FBB1FEE1FFF1F9B
:10211000A217B307E407F50720F0A21BB30BE40BEB
:10212000F50B661F771F881F991F1A9469F7609532
:102130007095809590959B01AC01BD01CF010895EC
:04214000F894FFCF41
:1021440000120010010000000000C8022000596FB6
:1021540075204C6F7374203A28004D657373616762
:10216400652072656369657665640D0049443A20AB
:1021740025640D0A004C656E6774683A2025640D69
:102184000A00446174613A2025730D0A006D657379
:1021940073616765732073656E74200A0D0025648E
:1021A400005374617274696E67205352414D2074F8
:1021B4006573742E2E2E0A0D005772697465207093
:1021C40068617365206572726F723A206578745F16
:1021D40072616D5B2534645D203D200020287368A6
:1021E4006F756C642062652000204D69736D6174A5
:1021F4006368656420626974732000290A0D0052C3
:10220400657472696576616C2070686173652065B8
:1022140072726F723A206578745F72616D5B2534F7
:10222400645D203D20005352414D20746573742039
:10223400636F6D706C657465642077697468200AD7
:102244000D253464206572726F727320696E207775
:102254007269746520706861736520616E64200A18
:102264000D253464206572726F727320696E20725A
:10227400657472696576616C2070686173650A0AB9
:102284000D004C69766573206C6566743A200050C5
:10229400696E672D706F6E672047616D652100530D
:1022A400746172742067616D650053656C65637455
:1022B40020646966666963756C74790043686F6F3E
:1022C400736520446966666963756C74793A004580
:1022D400617379004D656469756D004861726400CD
:1022E40054726F696B61004A6170700047616D657B
:0A22F40020737461727465642100A8
:00000001FF
