:100000000C9460030C947D030C947D030C947D038D
:100010000C947D030C947D030C947D030C947D0360
:100020000C947D030C947D030C947D030C947D0350
:100030000C947D030C947D030C947D030C947D0340
:100040000C947D030C947D030C947D030C947D0330
:100050000C947D030C947D030C947D030C947D0320
:100060000C947D030C947D030C947D030C947D0310
:1000700000000000005C00000C000C007C287C28C4
:1000800058DC68002410480028542840000C000068
:10009000007884008478000054385400107C1000EC
:1000A00080400000101010000040000060100C00A4
:1000B00038543800487C40004864580044542C00B0
:1000C0001C107C005C5424003854240064140C0080
:1000D00068542C0048543800004800008048000054
:1000E0001028440028282800442810000454080040
:1000F00038445C00781478007C5428003844280088
:100100007C4438007C5444007C140400384474005F
:100110007C107C00447C440020403C007C106C003F
:100120007C4040007C187C0078103C00384438004B
:100130007C1408003844B8007C146800485424003B
:10014000047C04007C407C003C603C007C307C00F3
:100150006C106C000C700C0064544C00007C44006B
:100160000C106000447C00000804080080808000BF
:1001700000040800304878007C48300030484800CF
:1001800030487C00306850001078140090A8780047
:100190007C08700050744000808074007C106800FF
:1001A000447C4000781078007808700030483000B7
:1001B000F82810003048F80078100800505828003F
:1001C000083C4800384078003840380078207800F3
:1001D0004830480098A0780048685800107884009B
:1001E000007C00008478100008040804000000006F
:1001F0000000005F00000007000700147F147F1458
:10020000242A7F2A1223130864623649552250009B
:1002100005030000001C2241000041221C00082AA6
:100220001C2A0808083E080800503000000808088A
:100230000808006060000020100804023E51494593
:100240003E00427F400042615149462141454B31C9
:100250001814127F1027454545393C4A4949300159
:10026000710905033649494936064949291E0036B0
:100270003600000056360000000814224114141401
:10028000141441221408000201510906324979412F
:100290003E7E1111117E7F494949363E414141223E
:1002A0007F4141221C7F494949417F090901013EA3
:1002B000414151327F0808087F00417F41002040C2
:1002C000413F017F081422417F404040407F0204AB
:1002D000027F7F0408107F3E4141413E7F090909AA
:1002E000063E4151215E7F09192946464949493157
:1002F00001017F01013F4040403F1F2040201F7F00
:100300002018207F631408146303047804036151E8
:1003100049454300007F4141020408102041417FCC
:100320000000040201020440404040400001020479
:100330000020545454787F4844443838444444207E
:10034000384444487F3854545418087E0901020840
:100350001454543C7F0804047800447D400020403D
:10036000443D00007F10284400417F40007C041879
:1003700004787C0804047838444444387C14141409
:1003800008081414187C7C080404084854545420A9
:10039000043F4440203C4040207C1C2040201C3C2A
:1003A0004030403C44281028440C5050503C446499
:1003B000544C44000836410000007F0000004136E4
:1003C000080002010302010000000000000000001C
:1003D000065F5F0600000000070700070700001423
:1003E0007F7F147F7F1400242E6B6B3A120000462F
:1003F0006630180C666200307A4F5D377A48000428
:1004000007030000000000001C3E634100000000E4
:1004100041633E1C000000082A3E1C1C3E2A0808BE
:10042000083E3E0808000000A0E060000000000850
:100430000808080808000000006060000000006074
:1004400030180C060301003E7F594D7F3E000042EC
:10045000427F7F40400000627359496F660000226E
:100460006349497F360000181C16137F7F10002750
:100470006745457D3900003C7E4B497930000003DB
:100480006371190F070000367F49497F3600000667
:100490004F49693F1E000000006C6C000000000026
:1004A000A0EC6C00000000081C3663410000001442
:1004B00014141414140000004163361C08000002D8
:1004C0000351590F0600003E7F415D5D1F1E007CF9
:1004D0007E13137E7C0000417F7F49497F36001CDC
:1004E0003E634141632200417F7F41637F1C0041A5
:1004F0007F7F495D416300417F7F491D0103001CEF
:100500003E6341517372007F7F08087F7F000000C7
:10051000417F7F41000000307040417F3F0100413A
:100520007F7F081C776300417F7F41406070007FC0
:100530007F060C067F7F007F7F060C187F7F001CE4
:100540003E6341633E1C00417F7F49090F06001E48
:100550003F21717F5E0000417F7F19396F46002681
:10056000674D597B32000003417F7F410300007FCC
:100570007F40407F7F00001F3F60603F1F00007F83
:100580007F3018307F7F0063771C081C776300077B
:100590004F78784F0700006773594D47637100002B
:1005A0007F7F41410000000103060C18306000000D
:1005B00041417F7F000000080C0603060C08008004
:1005C000808080808080800000030704000000207D
:1005D0007454543C784000413F7F44447C38003898
:1005E0007C44446C280000307848493F7F40003804
:1005F0007C54545C180000487E7F49030200009838
:10060000BCA4A4F87C0400417F7F08047C7800002F
:10061000447D7D4000000040C484FD7D0000004119
:100620007F7F10386C440000417F7F400000007CD9
:100630007C0C180C7C78007C7C04047C78000038EE
:100640007C44447C38000084FCF8A4243C18001846
:100650003C24A4F8FC8400447C78441C1800004826
:100660005C54547424000000043E7F442400003C89
:100670007C40403C7C40001C3C60603C1C00003CDA
:100680007C6030607C3C00446C3810386C44009CCA
:10069000BCA0A0FC7C00004C64745C4C64000008AE
:1006A000083E7741410000000000777700000041DC
:1006B00041773E0808000002030103020301000025
:1006C00011241FBECFEFD4E0DEBFCDBF12E0A0E00B
:1006D000B1E0EEEBFEE102C005900D92AE36B1073F
:1006E000D9F722E0AEE6B2E001C01D92A837B2070A
:1006F000E1F70E947F030C945D0F0C940000CF93F0
:10070000DF93CDB7DEB764970FB6F894DEBF0FBEA8
:10071000CDBF8FE190E00E942F040E943C040E9414
:100720006604BA98C29A0E94510600E010E00E9446
:1007300033070E94B0060E9433090E941E0960E63A
:1007400080E60E949B0863E083E00E949B0880E0B3
:100750000E9405092FEF8FEF9EE0215080409040CE
:10076000E1F700C000008EE091E00E94BE0A0F2E6B
:10077000FFE28F2EF1E09F2EF02D0F2EF8E3AF2E2B
:10078000F1E0BF2EF02D6E0123E0C20ED11C0F2E22
:10079000F5E4EF2EF1E0FF2EF02D6894552451F88A
:1007A0000F2EF3E06F2EF02D8CE20E94890880FF5F
:1007B00025C0CE0101960E9478098DE191E00E944A
:1007C000BE0A89811F928F939F928F920E94A80ADE
:1007D0008A811F928F93BF92AF920E94A80ADF92E4
:1007E000CF92FF92EF920E94A80A61E08CE20E94F1
:1007F0009B080FB6F894DEBF0FBECDBF802F912FA0
:100800000E949905802F912F0E94A8050E942D0615
:100810000E94E6050E9401060E94F805782E0E94BB
:10082000FD055C866B867D868E87CE010B960E94C9
:100830003609CE0101960E9436098CEC94E00197AE
:10084000F1F700C00000B0CF5D9BFECF8CB980E017
:1008500090E008955F9BFECF8CB190E0089589B938
:1008600090BD88E18AB98EE880BD6AE274E084E2D6
:1008700094E00E945D0A089582E086B987B98FEFFF
:100880008ABB089581E08BBB2FEF8FEF9EE0215054
:1008900080409040E1F700C0000082E08BBB2FEF6A
:1008A0008FEF9EE0215080409040E1F700C00000B3
:1008B00083E08BBB17B82FEF8FEF9EE02150804075
:1008C0009040E1F700C000001BBA089585B780682A
:1008D00085BF80B7877C80BF80B7806280BF089566
:1008E000EF92FF920F931F93CF93DF93C7E0D0E077
:1008F000E82EF12C00E511E097010C2E02C0359591
:1009000027950A94E2F7217033273F932F931F9383
:100910000F930E94A80A21970F900F900F900F90AD
:10092000CF3F8FEFD80741F7DF91CF911F910F9104
:10093000FF90EF9008954F925F926F927F928F9207
:100940009F92AF92BF92CF92DF92EF92FF920F935E
:100950001F93CF93DF9383E591E09F938F930E9442
:10096000A80A0E944D0A4C010E94520A0F900F9053
:10097000612C712CC0E0D0E00F2EFBE6AF2EF1E031
:10098000BF2EF02D0F2EFEE8CF2EF1E0DF2EF02D42
:100990000F2EFBE9EF2EF1E0FF2EF02D0DEA11E016
:1009A0000E944D0A582EF301F85E80834080841522
:1009B00029F17F926F92BF92AF920E94A80A842D74
:1009C0000E947004DF92CF920E94A80A852D0E9497
:1009D0007004FF92EF920E94A80A852D84250E9440
:1009E00070041F930F930E94A80A21968DB79EB79B
:1009F0000A960FB6F8949EBF0FBE8DBF9FEF691A7F
:100A0000790A611488E0780659F6C4010E94520AF6
:100A1000812C912C00E010E00F2EF1EBAF2EF1E0D5
:100A2000BF2EF02D0F2EFEE8CF2EF1E0DF2EF02DA1
:100A30000F2EFDEAEF2EF1E0FF2EF02D0E944D0A61
:100A4000782EF401F85E60808615F1F09F928F9207
:100A5000BF92AF920E94A80A862D0E947004DF9276
:100A6000CF920E94A80A872D0E947004FF92EF92F5
:100A70000E94A80A0F5F1F4F8DB79EB708960FB64A
:100A8000F8949EBF0FBE8DBF9FEF891A990A8114FB
:100A900088E0980699F61F930F93DF93CF9388ED24
:100AA00091E09F938F930E94A80A0F900F900F9050
:100AB0000F900F900F90DF91CF911F910F91FF90AA
:100AC000EF90DF90CF90BF90AF909F908F907F90EE
:100AD0006F905F904F900895109200102FE382E482
:100AE0009FE0215080409040E1F700C0000010924C
:100AF00000122FE382E49FE0215080409040E1F714
:100B000000C00000109200142FE382E49FE0215007
:100B100080409040E1F700C00000109200182FEBD9
:100B20008CE595E1215080409040E1F700C0000045
:100B30000895CF9380E00E946E06C82F81E00E9446
:100B40006E06282F6C2F70E0822F90E0CF910895D1
:100B5000CF92DF92EF92FF920F931F930E9499051D
:100B60006B017C018EE7C816D10474F496012D57F1
:100B7000310944E6429FC001439F900D11246DE767
:100B800070E00E94D9090DC096012D57310944E645
:100B9000429FC001439F900D11246DE770E00E94B9
:100BA000D9098B0144E64E9DC0014F9D900D112443
:100BB0006FEF70E00E94D9099B01C901B8011F9134
:100BC0000F91FF90EF90DF90CF90089586B382FB56
:100BD000882780F991E08927089536B326B370E01D
:100BE00090E033FB662760F921FB882780F90895A0
:100BF00086B383FB882780F9089586B38695817034
:100C000008950E9499056436710564F0693C710588
:100C100064F48436910564F0893C910564F484E0C1
:100C200090E0089580E090E0089581E090E00895DC
:100C300083E090E0089582E090E00895CF9382E011
:100C40000E946E06C82F83E00E946E06282F622F36
:100C500070E08C2F90E0CF910895CF92DF92EF92C9
:100C6000FF920E941E066B017C0144E64E9DC0016E
:100C70004F9D900D11242FEF30E0B9010E94D9094A
:100C8000FB014C9DC0014D9D900D1124B9010E94A6
:100C9000D9099B01B901CF01FF90EF90DF90CF9070
:100CA00008958C9AEBE8F0E08081826080838081F7
:100CB00081608083808180648083EAE8F0E08081C5
:100CC000806180838081886080838081816080836F
:100CD000109287001092860016BC0895109200149E
:100CE000482F50E020E030E0E0E0F4E180812F5F29
:100CF0003F4F42175307D4F70895E0910201F09156
:100D0000030180830895E0910001F0910101808347
:100D100008950895E0910201F091030180558083C8
:100D20000895E0910201F0910301982F9F70908344
:100D3000E0910201F091030182958F70805F8083C2
:100D400008950E948A0680E00E94910680E890E063
:100D5000E0910001F091010110820197C9F7089517
:100D6000CF93C0E08C2F0E94A106CF5FC830D1F78F
:100D7000CF910895CF93C62F0E948A068C2F0E9490
:100D80009106CF910895E0910001F09101018083D7
:100D90000895082E000C990B9C01220F331F220F7F
:100DA000331F820F931F20E030E0805A9109FC012D
:100DB000E20FF31FE451FE4FE491A0910001B091C6
:100DC0000101EC932F5F3F4F2530310581F70895E6
:100DD000CF93DF93EC018881882331F021960E9424
:100DE000C90689918111FBCFDF91CF9108950895B4
:100DF0000E94BA06E0910001F091010188E1808330
:100E0000E0910001F09101018083E0910001F091F7
:100E100001019EE79083E0910001F09101019CE3C4
:100E20009083E0910001F0910101808308950E9478
:100E3000BA06E0910001F09101011082E0910001F9
:100E4000F09101011082E0910001F0910101108206
:100E5000E0910001F09101011082E0910001F09118
:100E6000010110820895E0910201F09103018EEAE0
:100E70008083E0910201F091030181EA8083E09197
:100E80000201F09103018AED8083E0910201F0916B
:100E9000030182E18083E0910201F091030188EC7B
:100EA0008083E0910201F091030188EA8083E09160
:100EB0000201F09103018FE38083E0910201F09140
:100EC000030185ED8083E0910201F091030180E848
:100ED0008083E0910201F091030181E88083E09139
:100EE0000201F091030180E58083E0910201F0911D
:100EF000030189ED8083E0910201F091030181E219
:100F00008083E0910201F091030180E28083E0910F
:100F10000201F091030182E08083E0910201F091EF
:100F200003018BED8083E0910201F091030180E3E6
:100F30008083E0910201F09103018DEA8083E091CA
:100F40000201F09103011082E0910201F09103018E
:100F500084EA8083E0910201F091030186EA8083B4
:100F6000E0910201F09103018FEA808308956CE320
:100F700080E00E94BA0684E392E00E94E8066CE3F7
:100F800081E00E94BA068AE392E00E94E8066CE3E0
:100F900082E00E94BA0680E492E00E94E8066CE3D8
:100FA00083E00E94BA0686E492E00E94E8066CE3C1
:100FB00084E00E94BA068CE492E00E94E8066CE3AA
:100FC00085E00E94BA0682E592E00E94E806089554
:100FD000BF92CF92DF92EF92FF920F931F93CF9326
:100FE000DF930E94E605C82F62E380E00E94F806C6
:100FF000C13009F46CC0C0E0D0E00F2EF8E5CF2E70
:10100000F2E0DF2EF02D11E0B12C0E94E605082F52
:101010001F928F93DF92CF920E94A80A2FE986E851
:1010200091E0215080409040E1F700C000000E9414
:10103000A8057C01812F0F900F900F900F902BE04F
:10104000E216F1040CF08B2D8823D1F0812FC730EC
:10105000D10508F08B2D882399F0219662E38C2F1F
:1010600081500E94170762E38C2F0E94F8068FE3DD
:101070009DE023E0815090402040E1F700C0000057
:10108000212FCE010197079708F02B2D2223D9F0AD
:10109000812F9AE5E916F1040CF48B2D882399F041
:1010A000219762E38C2F8F5F0E94170762E38C2FDA
:1010B0000E94F8062FE38DE093E02150804090409D
:1010C000E1F700C00000013009F09FCF02C0C0E08E
:1010D000D0E0CE01DF91CF911F910F91FF90EF9063
:1010E000DF90CF90BF900895C49A0895C498089552
:1010F00080EB87BB81E58DB90E94740808958FB994
:10110000779BFECF08958FEF8FB9779BFECF8FB17E
:101110000895CF93C82F0E94760883E00E947F082D
:101120008C2F0E947F080E948308C82F0E94740899
:101130008C2FCF910895CF93DF93D82FC62F0E9485
:10114000760882E00E947F088D2F0E947F088C2FF6
:101150000E947F080E947408DF91CF910895CF9379
:10116000C82F0E947608C13041F028F0C23039F013
:10117000C33039F008C081E807C082E805C084E8C0
:1011800003C087E801C080E00E947F080E947408C5
:10119000CF910895CF930E94760880EA0E947F083D
:1011A0000E948308C82F0E9474088C2FCF91089545
:1011B0001F93CF93DF93182FC62FD42F0E9476084A
:1011C00085E00E947F08812F0E947F088D2F0E945A
:1011D0007F088C2F0E947F080E947408DF91CF91B6
:1011E0001F9108950E94760880EC0E947F080E945B
:1011F000740808950E9478080E94F20889EF90E030
:101200000197F1F700C000000895803459F018F4F8
:10121000803231F00DC0803639F0803839F008C0A6
:1012200060E207C060E405C060E603C060E801C09A
:1012300060E040EE8FE00E94D808089580E80E94A8
:10124000050963EC8AE20E949B086BE989E20E942F
:101250009B0863E088E20E949B0808958EE00E944C
:101260008908807E08950E94FA080895CF92DF923F
:10127000EF92FF921F93CF93DF936C01FC0160818B
:1012800066956695669581E30E949B08F6016081EC
:10129000F0E26F9FB001112482E30E949B08F601E7
:1012A000618185E30E949B08F60181818823A9F072
:1012B0007601F2E0EF0EF11C16E3C0E0D0E0F7019A
:1012C00061917F01812F0E949B0821961F5FF6018B
:1012D000818190E0C817D90794F380E00E94AF089D
:1012E000DF91CF911F91FF90EF90DF90CF90089505
:1012F0009F92AF92BF92CF92DF92EF92FF920F93A5
:101300001F93CF93DF93CDB7DEB72A970FB6F8942C
:10131000DEBF0FBECDBF5C01FE0131968AE0DF016A
:101320001D928A95E9F782E60E948908082F81E6D6
:101330000E948908029506950770880F880F880F0C
:10134000080F85E60E948908982E8823A9F07E015F
:10135000B3E0EB0EF11C9E01280F311DF90133960D
:101360006F0116E6812F0E948908D7018D937D01B8
:101370001F5FAC15BD05B1F709839A828AE0FE01B3
:101380003196D50101900D928A95E1F7C5012A9613
:101390000FB6F894DEBF0FBECDBFDF91CF911F9186
:1013A0000F91FF90EF90DF90CF90BF90AF909F9004
:1013B000089597FB072E16F4009407D077FD09D007
:1013C0000E94ED0907FC05D03EF4909581959F4F52
:1013D0000895709561957F4F0895AA1BBB1B51E13D
:1013E00007C0AA1FBB1FA617B70710F0A61BB70B95
:1013F000881F991F5A95A9F780959095BC01CD013A
:1014000008958F929F92AF92BF92CF92DF92EF9208
:10141000FF92CF93DF93EC01688179818A819B8170
:10142000611571058105910521F464E279ED8BE583
:1014300097E02DE133EF41E050E00E94C30E4901F7
:101440005A019B01AC01A7EAB1E40E94E20E6B01D4
:101450007C01ACEEB4EFA50194010E94F00EDC011A
:10146000CB018C0D9D1DAE1DBF1DB7FF03C00197A5
:10147000A109B04888839983AA83BB839F77DF91B2
:10148000CF91FF90EF90DF90CF90BF90AF909F9063
:101490008F9008950E94010A089584E091E00E94CF
:1014A000010A0895A0E0B0E0809304019093050143
:1014B000A0930601B093070108950F931F93CF9354
:1014C000DF93009731F46115710519F480E090E025
:1014D0003AC08B01EC016EE070E081E090E00E9488
:1014E000CF0CFC01892B91F380E883830115110552
:1014F00071F01387028781E8838380916E02909157
:101500006F02892B21F4F0936F02E0936E02209713
:10151000C9F0D187C0878381826083838091700204
:1015200090917102892B71F4F0937102E093700233
:101530008091720290917302892B21F4F0937302CF
:10154000E0937202CF01DF91CF911F910F91089527
:10155000A0E0B0E0EEEAFAE00C94050FAE014B5FBC
:101560005F4FFA0161917191AF018091700290918A
:1015700071020E94EE0AE2E00C94210F0F931F9378
:10158000CF93DF93E0917002F0917102238121FFEC
:101590001BC08C01D0E0C0E0F80181918F01609107
:1015A000700270917102DB011896ED91FC91199710
:1015B000882331F00995892B79F3DFEFCFEFECCF5A
:1015C0008AE00995892B19F08FEF9FEF02C08D2FCC
:1015D0009C2FDF91CF911F910F910895ABE0B0E068
:1015E000E4EFFAE00C94F50E6C017B018A01FC013A
:1015F00017821682838181FFCCC1CE0101963C0106
:10160000F6019381F70193FD859193FF81917F010D
:10161000882309F4BAC1853239F493FD859193FF8B
:1016200081917F01853229F4B60190E00E94290E54
:10163000E7CF912C212C312CFFE1F315D8F08B3220
:1016400079F038F4803279F08332A1F4232D2061CF
:101650001DC08D3261F0803369F4232D216016C0E6
:10166000832D8260382EE32DE4603E2E2AC0F32DB8
:10167000F8601DC037FC2DC020ED280F2A3040F047
:101680008E32B9F436FC81C1232D2064322E19C06C
:1016900036FE06C08AE0989E200D1124922E11C0BD
:1016A000EAE02E9E200D1124222EF32DF0623F2E13
:1016B00008C08C3621F4832D8068382E02C088360D
:1016C00041F4F70193FD859193FF81917F01811191
:1016D000B3CF982F9F7D9554933028F40C5F1F4F04
:1016E0009FE399830DC0833631F0833771F08335E2
:1016F00009F059C021C0F801808189830E5F1F4F16
:1017000088248394912C530113C02801F2E04F0EDA
:10171000511CF801A080B18036FE03C0692D70E035
:1017200002C06FEF7FEFC5010E941E0E4C018201C7
:10173000F32DFF773F2E16C0280122E0420E511CE8
:10174000F801A080B18036FE03C0692D70E002C0B0
:101750006FEF7FEFC5010E940C0E4C01F32DF06876
:101760003F2E820133FC1BC0822D90E08816990623
:10177000B0F4B60180E290E00E94290E2A94F4CFE2
:10178000F50137FC859137FE81915F01B60190E04C
:101790000E94290E21102A9421E0821A91088114B6
:1017A000910471F7E8C0843611F0893641F5F801EB
:1017B00037FE07C060817181828193810C5F1F4F6A
:1017C00008C060817181072E000C880B990B0E5F99
:1017D0001F4FF32DFF763F2E97FF09C09095809500
:1017E000709561957F4F8F4F9F4FF0683F2E2AE095
:1017F00030E0A3010E94650E882E861845C085370B
:1018000031F4232D2F7EB22E2AE030E025C0932D17
:10181000997FB92E8F36C1F018F4883579F0B5C0AC
:10182000803719F0883721F0B0C0E92FE061BE2E73
:10183000B4FE0DC0FB2DF460BF2E09C034FE0AC0FB
:10184000292F2660B22E06C028E030E005C020E136
:1018500030E002C020E132E0F801B7FE07C060814D
:101860007181828193810C5F1F4F06C060817181FD
:1018700080E090E00E5F1F4FA3010E94650E882E4E
:101880008618FB2DFF773F2E36FE0DC0232D2E7FB1
:10189000A22E891458F434FE0BC032FC09C0832DEB
:1018A0008E7EA82E05C0B82CA32C03C0B82C01C076
:1018B000B92CA4FE0FC0FE01E80DF11D808180331C
:1018C00021F49A2D997EA92E09C0A2FE06C0B394D8
:1018D000B39404C08A2D867809F0B394A3FC11C098
:1018E000A0FE06C0B21488F4280C922C9B180EC0DF
:1018F000B21460F4B60180E290E00E94290EB39425
:10190000F7CFB21418F42B1802C0982C212CA4FE87
:1019100010C0B60180E390E00E94290EA2FE17C01D
:10192000A1FC03C088E790E002C088E590E0B60122
:101930000CC08A2D867859F0A1FE02C08BE201C04E
:1019400080E2A7FC8DE2B60190E00E94290E891486
:1019500038F4B60180E390E00E94290E9A94F7CF04
:101960008A94F301E80DF11D8081B60190E00E9498
:10197000290E8110F5CF222009F442CEB60180E273
:1019800090E00E94290E2A94F6CFF6018681978175
:1019900002C08FEF9FEF2B96E2E10C94110F0F9393
:1019A0001F93CF93DF93869F8001879F100D969F93
:1019B000100D1124C8010E94EB0CEC01009729F0D6
:1019C000A80160E070E00E94170ECE01DF91CF9178
:1019D0001F910F9108950F931F93CF93DF93823040
:1019E000910510F482E090E0E0917602F0917702A8
:1019F00020E030E0A0E0B0E0309719F14081518163
:101A00000281138148175907C8F08417950769F4B4
:101A1000109731F012960C93129713961C9327C0CF
:101A2000009376021093770222C02115310519F038
:101A30004217530718F49A01BD01EF01DF01F801C5
:101A4000DBCF21153105F9F0281B390B2430310586
:101A500080F48A819B816115710521F0FB019383DC
:101A6000828304C09093770280937602FE013296BF
:101A700044C0FE01E20FF31F81939193225031097C
:101A8000398328833AC02091740230917502232B48
:101A900041F420910A0130910B013093750220939B
:101AA000740220910801309109012115310541F49A
:101AB0002DB73EB740910C0150910D01241B350B01
:101AC000E0917402F0917502E217F307A0F42E1B67
:101AD0003F0B2817390778F0AC014E5F5F4F241792
:101AE000350748F04E0F5F1F509375024093740204
:101AF0008193919302C0E0E0F0E0CF01DF91CF91BC
:101B00001F910F910895CF93DF93009709F481C03F
:101B1000FC01329713821282A0917602B091770273
:101B2000109781F420813181820F931F20917402DC
:101B3000309175022817390751F5F0937502E0933B
:101B4000740267C0ED0120E030E0CE17DF0740F4FB
:101B50004A815B819E0141155105F1F0EA01F5CF03
:101B6000D383C28340815181840F951FC817D90741
:101B700059F488819981840F951F029691838083FF
:101B80008A819B81938382832115310529F4F09307
:101B90007702E09376023DC0E901FB83EA83499135
:101BA0005991C40FD51FEC17FD0761F48081918115
:101BB000840F951F0296E90199838883828193811E
:101BC0009B838A83E0E0F0E012968D919C911397BD
:101BD000009719F0FD01DC01F7CF8D919C911197D1
:101BE0009D012E5F3F4F820F931F20917402309111
:101BF00075022817390769F4309729F41092770293
:101C00001092760202C013821282B0937502A093E2
:101C10007402DF91CF910895FC01059061507040EE
:101C20000110D8F7809590958E0F9F1F0895DC01C5
:101C300001C06D9341505040E0F70895FC016150A0
:101C4000704001900110D8F7809590958E0F9F1FDE
:101C500008950F931F93CF93DF93FB01238121FD01
:101C600003C08FEF9FEF2CC022FF16C04681578123
:101C7000248135814217530744F4A081B1819D012D
:101C80002F5F3F4F318320838C93268137812F5FD5
:101C90003F4F3783268314C08B01EC01FB01008486
:101CA000F185E02D0995892BE1F6D80116968D91E5
:101CB0009C911797019617969C938E931697CE0139
:101CC000DF91CF911F910F910895FA01AA27283033
:101CD00051F1203181F1E8946F936E7F6E5F7F4FF9
:101CE0008F4F9F4FAF4FB1E03ED0B4E03CD0670F75
:101CF000781F891F9A1FA11D680F791F8A1F911DC8
:101D0000A11D6A0F711D811D911DA11D20D009F417
:101D100068943F912AE0269F11243019305D319359
:101D2000DEF6CF010895462F4770405D4193B3E042
:101D30000FD0C9F7F6CF462F4F70405D4A3318F0E9
:101D4000495D31FD4052419302D0A9F7EACFB4E09A
:101D5000A6959795879577956795BA95C9F7009752
:101D60006105710508959B01AC010A2E06945795F3
:101D7000479537952795BA95C9F7620F731F841F4A
:101D8000951FA01D0895052E97FB1EF400940E9438
:101D9000DA0E57FD07D00E942C0F07FC03D04EF43B
:101DA0000C94DA0E50954095309521953F4F4F4F4A
:101DB0005F4F089590958095709561957F4F8F4FF7
:101DC0009F4F08950E944E0FA59F900DB49F900DB8
:101DD000A49F800D911D11240895B7FF0C94E20E6D
:101DE0000E94E20E821B930B08952F923F924F9216
:101DF0005F926F927F928F929F92AF92BF92CF929B
:101E0000DF92EF92FF920F931F93CF93DF93CDB7A3
:101E1000DEB7CA1BDB0B0FB6F894DEBF0FBECDBF1B
:101E200009942A88398848885F846E847D848C84EC
:101E30009B84AA84B984C884DF80EE80FD800C81F5
:101E40001B81AA81B981CE0FD11D0FB6F894DEBFD8
:101E50000FBECDBFED010895A1E21A2EAA1BBB1B38
:101E6000FD010DC0AA1FBB1FEE1FFF1FA217B30766
:101E7000E407F50720F0A21BB30BE40BF50B661F7C
:101E8000771F881F991F1A9469F760957095809540
:101E900090959B01AC01BD01CF010895A29FB001B7
:101EA000B39FC001A39F700D811D1124911DB29F8E
:0E1EB000700D811D1124911D0895F894FFCF2F
:101EBE000012001001000000000078022000537490
:101ECE00617274696E67206C6F6F700D004D657373
:101EDE00736167652072656369657665640D004997
:101EEE00443A2025640D0A004C656E6774683A20EA
:101EFE0025640D0A00446174613A2025730D0A00B1
:101F0E002564005374617274696E67205352414D9B
:101F1E0020746573742E2E2E0A0D00577269746527
:101F2E00207068617365206572726F723A206578F1
:101F3E00745F72616D5B2534645D203D2000202846
:101F4E0073686F756C642062652000204D69736D37
:101F5E0061746368656420626974732000290A0DD8
:101F6E000052657472696576616C20706861736584
:101F7E00206572726F723A206578745F72616D5B64
:101F8E002534645D203D20005352414D207465730D
:101F9E007420636F6D706C65746564207769746806
:101FAE00200A0D253464206572726F727320696E7B
:101FBE0020777269746520706861736520616E6444
:101FCE00200A0D253464206572726F727320696E5B
:101FDE002072657472696576616C207068617365D4
:101FEE000A0A0D00546162203100546162203200F1
:101FFE0054616220330054616220340054616220C7
:10200E0035005461622036004A6F79737469636BD0
:0E201E0020627574746F6E3A2025640A0D00FE
:00000001FF
