:100000000C9438000C9442000C9442000C94420072
:100010000C9442000C9442000C9442000C94420058
:100020000C9442000C9442000C9442000C94420048
:100030000C9442000C9442000C9442000C94420038
:100040000C9442000C9442000C9442000C94420028
:100050000C9442000C9442000C9442000C94420018
:100060000C9442000C9442000C9442000C94420008
:1000700011241FBECFEFD4E0DEBFCDBF0E944400ED
:100080000C947E000C9400000E945D000E946700AA
:10009000089589B990BD88E18AB98EE880BD089538
:1000A0005D9BFECF8CB908955F9BFECF8CB1089508
:1000B0000E9454000E945000FBCF8A9A319A85B763
:1000C000806885BF87E08ABB089508950895399AAE
:1000D00087E08BBB2FEF3FE794E02150304090400A
:1000E000E1F700C000001BBA2FEF3FE794E021507A
:1000F00030409040E1F700C00000EBCFF894FFCF14
:00000001FF
