:100000000C9460030C947D030C947D030C947D038D
:100010000C947D030C947D030C947D030C947D0360
:100020000C947D030C947D030C947D030C947D0350
:100030000C947D030C947D030C947D030C947D0340
:100040000C947D030C947D030C947D030C947D0330
:100050000C947D030C947D030C947D030C947D0320
:100060000C947D030C947D030C947D030C947D0310
:1000700000000000005C00000C000C007C287C28C4
:1000800058DC68002410480028542840000C000068
:10009000007884008478000054385400107C1000EC
:1000A00080400000101010000040000060100C00A4
:1000B00038543800487C40004864580044542C00B0
:1000C0001C107C005C5424003854240064140C0080
:1000D00068542C0048543800004800008048000054
:1000E0001028440028282800442810000454080040
:1000F00038445C00781478007C5428003844280088
:100100007C4438007C5444007C140400384474005F
:100110007C107C00447C440020403C007C106C003F
:100120007C4040007C187C0078103C00384438004B
:100130007C1408003844B8007C146800485424003B
:10014000047C04007C407C003C603C007C307C00F3
:100150006C106C000C700C0064544C00007C44006B
:100160000C106000447C00000804080080808000BF
:1001700000040800304878007C48300030484800CF
:1001800030487C00306850001078140090A8780047
:100190007C08700050744000808074007C106800FF
:1001A000447C4000781078007808700030483000B7
:1001B000F82810003048F80078100800505828003F
:1001C000083C4800384078003840380078207800F3
:1001D0004830480098A0780048685800107884009B
:1001E000007C00008478100008040804000000006F
:1001F0000000005F00000007000700147F147F1458
:10020000242A7F2A1223130864623649552250009B
:1002100005030000001C2241000041221C00082AA6
:100220001C2A0808083E080800503000000808088A
:100230000808006060000020100804023E51494593
:100240003E00427F400042615149462141454B31C9
:100250001814127F1027454545393C4A4949300159
:10026000710905033649494936064949291E0036B0
:100270003600000056360000000814224114141401
:10028000141441221408000201510906324979412F
:100290003E7E1111117E7F494949363E414141223E
:1002A0007F4141221C7F494949417F090901013EA3
:1002B000414151327F0808087F00417F41002040C2
:1002C000413F017F081422417F404040407F0204AB
:1002D000027F7F0408107F3E4141413E7F090909AA
:1002E000063E4151215E7F09192946464949493157
:1002F00001017F01013F4040403F1F2040201F7F00
:100300002018207F631408146303047804036151E8
:1003100049454300007F4141020408102041417FCC
:100320000000040201020440404040400001020479
:100330000020545454787F4844443838444444207E
:10034000384444487F3854545418087E0901020840
:100350001454543C7F0804047800447D400020403D
:10036000443D00007F10284400417F40007C041879
:1003700004787C0804047838444444387C14141409
:1003800008081414187C7C080404084854545420A9
:10039000043F4440203C4040207C1C2040201C3C2A
:1003A0004030403C44281028440C5050503C446499
:1003B000544C44000836410000007F0000004136E4
:1003C000080002010302010000000000000000001C
:1003D000065F5F0600000000070700070700001423
:1003E0007F7F147F7F1400242E6B6B3A120000462F
:1003F0006630180C666200307A4F5D377A48000428
:1004000007030000000000001C3E634100000000E4
:1004100041633E1C000000082A3E1C1C3E2A0808BE
:10042000083E3E0808000000A0E060000000000850
:100430000808080808000000006060000000006074
:1004400030180C060301003E7F594D7F3E000042EC
:10045000427F7F40400000627359496F660000226E
:100460006349497F360000181C16137F7F10002750
:100470006745457D3900003C7E4B497930000003DB
:100480006371190F070000367F49497F3600000667
:100490004F49693F1E000000006C6C000000000026
:1004A000A0EC6C00000000081C3663410000001442
:1004B00014141414140000004163361C08000002D8
:1004C0000351590F0600003E7F415D5D1F1E007CF9
:1004D0007E13137E7C0000417F7F49497F36001CDC
:1004E0003E634141632200417F7F41637F1C0041A5
:1004F0007F7F495D416300417F7F491D0103001CEF
:100500003E6341517372007F7F08087F7F000000C7
:10051000417F7F41000000307040417F3F0100413A
:100520007F7F081C776300417F7F41406070007FC0
:100530007F060C067F7F007F7F060C187F7F001CE4
:100540003E6341633E1C00417F7F49090F06001E48
:100550003F21717F5E0000417F7F19396F46002681
:10056000674D597B32000003417F7F410300007FCC
:100570007F40407F7F00001F3F60603F1F00007F83
:100580007F3018307F7F0063771C081C776300077B
:100590004F78784F0700006773594D47637100002B
:1005A0007F7F41410000000103060C18306000000D
:1005B00041417F7F000000080C0603060C08008004
:1005C000808080808080800000030704000000207D
:1005D0007454543C784000413F7F44447C38003898
:1005E0007C44446C280000307848493F7F40003804
:1005F0007C54545C180000487E7F49030200009838
:10060000BCA4A4F87C0400417F7F08047C7800002F
:10061000447D7D4000000040C484FD7D0000004119
:100620007F7F10386C440000417F7F400000007CD9
:100630007C0C180C7C78007C7C04047C78000038EE
:100640007C44447C38000084FCF8A4243C18001846
:100650003C24A4F8FC8400447C78441C1800004826
:100660005C54547424000000043E7F442400003C89
:100670007C40403C7C40001C3C60603C1C00003CDA
:100680007C6030607C3C00446C3810386C44009CCA
:10069000BCA0A0FC7C00004C64745C4C64000008AE
:1006A000083E7741410000000000777700000041DC
:1006B00041773E0808000002030103020301000025
:1006C00011241FBECFEFD4E0DEBFCDBF12E0A0E00B
:1006D000B1E0EEEEF0E202C005900D92AE3AB10745
:1006E000D9F722E0AEEAB2E001C01D92AC3BB207FE
:1006F000E1F70E947F030C9475100C940000CF93D7
:10070000DF93CDB7DEB72A970FB6F894DEBF0FBEE2
:10071000CDBF8FE190E00E9439040E9446040E9400
:100720007004BA98C29A0E9479060E94B8070E9483
:10073000D7060E944B0A0E94360A60E680E60E94B5
:10074000B30963E083E00E94B30980E00E941D0AC0
:100750001092B1021092B0021092AF021092AE024B
:100760008091AE029091AF02892B39F40E943C082F
:100770000E947A080E94F20804C00E947A080E942F
:1007800055098091B0029091B102892B49F30F2E47
:10079000F0E28F2EF1E09F2EF02D0F2EF9E2AF2E1A
:1007A000F1E0BF2EF02D6E0183E0C80ED11C0F2E9C
:1007B000F6E3EF2EF1E0FF2EF02D6894552452F869
:1007C00001E411E08CE20E94A10980FF2BC0CE0160
:1007D00001960E94900A8B81082E000C990B0E94B2
:1007E0008F078EE091E00E94E50B89811F928F9325
:1007F0009F928F920E94CF0B8A811F928F93BF92FC
:10080000AF920E94CF0BDF92CF92FF92EF920E94A5
:10081000CF0B61E08CE20E94B3090FB6F894DEBF03
:100820000FBECDBF0E945506762E682E0E94170679
:100830000E9429060E941E0691E099835A826B82CB
:100840007C826D838E83CE0101960E944E0A1F9397
:100850000F930E94CF0B0F900F90B4CF5D9BFECFF4
:100860008CB980E090E008955F9BFECF8CB190E062
:10087000089589B990BD88E18AB98EE880BD64E3A6
:1008800074E08EE294E00E94840B089582E086B9C1
:1008900087B98FEF8ABB089581E08BBB2FEF8FEF75
:1008A0009EE0215080409040E1F700C0000082E0CF
:1008B0008BBB2FEF8FEF9EE0215080409040E1F7FF
:1008C00000C0000083E08BBB17B82FEF8FEF9EE0D6
:1008D000215080409040E1F700C000001BBA08950D
:1008E00085B7806885BF80B7877C80BF80B780620E
:1008F00080BF0895EF92FF920F931F93CF93DF93E2
:10090000C7E0D0E0E82EF12C02E511E097010C2EB3
:1009100002C0359527950A94E2F7217033273F935B
:100920002F931F930F930E94CF0B21970F900F903F
:100930000F900F90CF3F8FEFD80741F7DF91CF9106
:100940001F910F91FF90EF9008954F925F926F92D9
:100950007F928F929F92AF92BF92CF92DF92EF924F
:10096000FF920F931F93CF93DF9385E591E09F93C1
:100970008F930E94CF0B0E94740B4C010E94790B45
:100980000F900F90612C712CC0E0D0E00F2EFDE68F
:10099000AF2EF1E0BF2EF02D0F2EF0E9CF2EF1E0BB
:1009A000DF2EF02D0F2EFDE9EF2EF1E0FF2EF02DC2
:1009B0000FEA11E00E94740B582EF301F85E808359
:1009C0004080841529F17F926F92BF92AF920E946E
:1009D000CF0B842D0E947A04DF92CF920E94CF0B1E
:1009E000852D0E947A04FF92EF920E94CF0B852DF5
:1009F00084250E947A041F930F930E94CF0B2196A7
:100A00008DB79EB70A960FB6F8949EBF0FBE8DBFE6
:100A10009FEF691A790A611488E0780659F6C401D3
:100A20000E94790B812C912C00E010E00F2EF3EB4B
:100A3000AF2EF1E0BF2EF02D0F2EF0E9CF2EF1E01A
:100A4000DF2EF02D0F2EFFEAEF2EF1E0FF2EF02D1E
:100A50000E94740B782EF401F85E60808615F1F028
:100A60009F928F92BF92AF920E94CF0B862D0E94D1
:100A70007A04DF92CF920E94CF0B872D0E947A04D6
:100A8000FF92EF920E94CF0B0F5F1F4F8DB79EB763
:100A900008960FB6F8949EBF0FBE8DBF9FEF891AC0
:100AA000990A811488E0980699F61F930F93DF93B3
:100AB000CF938AED91E09F938F930E94CF0B0F907D
:100AC0000F900F900F900F900F90DF91CF911F918B
:100AD0000F91FF90EF90DF90CF90BF90AF909F90DD
:100AE0008F907F906F905F904F90089510920010BC
:100AF0002FE382E49FE0215080409040E1F700C066
:100B00000000109200122FE382E49FE02150804009
:100B10009040E1F700C00000109200142FE382E43F
:100B20009FE0215080409040E1F700C0000010920B
:100B300000182FEB8CE595E1215080409040E1F7C3
:100B400000C000000895CF9380E00E949606C82F51
:100B500081E00E949606282F6C2F70E0822F90E093
:100B6000CF9108958F929F92AF92BF92CF92DF92D2
:100B7000EF92FF920E94A3056B017C018EE7C816DD
:100B8000D104E8F484E68C9DA0018D9D500D1124C4
:100B9000445D50439A01A5E2B6E00E94050B481B54
:100BA000590B56954795840F951F0024880F991F60
:100BB000001C880F991F001C892F902D1CC084E6F3
:100BC0008C9DA0018D9D500D1124445D50439A01D0
:100BD000A5E2B6E00E94050B481B590B56954795B8
:100BE000840F951F0024880F991F001C880F991FE0
:100BF000001C892F902D4C0184E68E9D90018F9DC5
:100C0000300D1124A1E8B0E80E94050B5C01AA0C8C
:100C1000AB2CAA1CBB08B194C501B401FF90EF90A6
:100C2000DF90CF90BF90AF909F908F90089586B344
:100C300082FB882780F991E08927089536B326B38F
:100C400070E090E033FB662760F921FB882780F98C
:100C500008950E94A3056436710560F0693C710532
:100C600060F48436910560F0893C910560F484E07D
:100C700090E0089580E090E0089581E090E008958C
:100C800083E090E0089582E090E00895CF9382E0C1
:100C90000E949606C82F83E00E949606282F622F96
:100CA00070E08C2F90E0CF910895CF92DF92EF9279
:100CB000FF920E9446066B017C0144E64E9DC001F6
:100CC0004F9D900D11242FEF30E0B9010E94F10AE1
:100CD000FB014C9DC0014D9D900D1124B9010E9456
:100CE000F10A9B01B901CF01FF90EF90DF90CF9007
:100CF00008958C9AEBE8F0E08081826080838081A7
:100D000081608083808180648083EAE8F0E0808174
:100D1000806180838081886080838081816080831E
:100D2000109287001092860016BC0895109200144D
:100D3000482F50E020E030E0E0E0F4E180812F5FD8
:100D40003F4F42175307D4F70895E0910201F09105
:100D5000030180830895E0910001F09101018083F7
:100D60000895E0910201F091030180558083089578
:100D7000E0910201F0910301982F9F709083E09120
:100D80000201F091030182958F70805F8083089546
:100D90000E94B10680E00E94B80680E890E0E091F1
:100DA0000001F091010110820197C9F70895CF93D6
:100DB000C0E08C2F0E94C806CF5FC830D1F7CF911A
:100DC0000895CF93C62F0E94B1068C2F0E94B806BB
:100DD000CF910895E0910001F09101018083089581
:100DE000082E000C990B9C01220F331F220F331F7A
:100DF000820F931F20E030E0805A9109FC01E20F3E
:100E0000F31FE451FE4FE491A0910001B091010164
:100E1000EC932F5F3F4F2530310581F70895CF9335
:100E2000DF93EC018881882331F021960E94F0063F
:100E300089918111FBCFDF91CF91089508950E9490
:100E4000E106E0910001F091010188E18083E091E9
:100E50000001F09101018083E0910001F091010116
:100E60009EE79083E0910001F09101019CE3908363
:100E7000E0910001F0910101808308950E94E10654
:100E8000E0910001F09101011082E0910001F091E8
:100E900001011082E0910001F09101011082E091C6
:100EA0000001F09101011082E0910001F091010137
:100EB000108208950E94E106E0910001F091010185
:100EC0008CE08083E0910001F09101019EE190832C
:100ED000E0910001F09101012FE32083E0910001F6
:100EE000F09101013EE73083E0910001F0910101B2
:100EF0004CEF4083E0910001F09101013083E091DB
:100F00000001F09101012083E0910001F0910101C5
:100F10009083E0910001F091010180830895EF92A8
:100F2000FF921F93CF93DF937C010E94D70664E169
:100F300081E00E94E10686E392E00E940F078FEFB6
:100F4000E81AF80A82E0E816F10464F014E1C1E05E
:100F5000D0E0612F84E00E945A0721961C5ECE15D6
:100F6000DF05BCF3DF91CF911F91FF90EF900895C3
:100F7000E0910201F09103018EEA8083E091020189
:100F8000F091030181EA8083E0910201F091030175
:100F90008AED8083E0910201F091030182E1808378
:100FA000E0910201F091030188EC8083E09102015D
:100FB000F091030188EA8083E0910201F09103013E
:100FC0008FE38083E0910201F091030185ED80833E
:100FD000E0910201F091030180E88083E091020139
:100FE000F091030181E88083E0910201F091030117
:100FF00080E58083E0910201F091030189ED808317
:10100000E0910201F091030181E28083E09102010D
:10101000F091030180E28083E0910201F0910301ED
:1010200082E08083E0910201F09103018BED8083E7
:10103000E0910201F091030180E38083E0910201DD
:10104000F09103018DEA8083E0910201F0910301A8
:101050001082E0910201F091030184EA8083E09123
:101060000201F091030186EA8083E0910201F09190
:1010700003018FEA808308950E94D70664E180E02F
:101080000E94E10683E492E00E940F076EE182E095
:101090000E94E10683E592E00E940F076EE184E082
:1010A0000E94E1068EE592E00E940F0708950E94DB
:1010B000D70664E180E00E94E10680E792E00E94AA
:1010C0000F076EE182E00E94E10683E892E00E9451
:1010D0000F076EE184E00E94E10688E892E00E943A
:1010E0000F076EE186E00E94E1068FE892E00E9421
:1010F0000F070895DF92EF92FF920F931F93CF9304
:10110000DF930E941706C82F6AE080E00E941F0745
:10111000C13009F453C0C0E0D0E011E0D12C0E94EE
:101120001706082F0E94B2057C01812F2BE0E216E2
:10113000F10408F08D2D8823D1F0812FC730D1051F
:1011400008F08D2D882399F021966AE08C2F81502C
:101150000E943E076AE08C2F0E941F078FE39DE0EC
:1011600023E0815090402040E1F700C00000212F93
:10117000CE010197079708F02D2D2223D9F0812F5A
:101180009AE5E916F10408F48D2D882399F021974A
:101190006AE08C2F8F5F0E943E076AE08C2F0E94CE
:1011A0001F072FE38DE093E0215080409040E1F74E
:1011B00000C00000013009F0B2CF02C0C0E0D0E0B2
:1011C0002FE38DE093E0215080409040E1F700C094
:1011D0000000CE01DF91CF911F910F91FF90EF9012
:1011E000DF900895CF9381309105F9F01CF4892B9D
:1011F00041F055C08230910519F1049709F444C0BB
:101200004EC00E94D70660E083E00E94E10684E9B8
:1012100092E00E940F072FE78AE196E0215080407C
:101220009040E1F700C000003EC00E94D70660E099
:1012300083E00E94E1068BE992E00E940F0733C031
:101240000E94D706C0E064E18C2F0E94E10680EA8C
:1012500092E00E940F072FE38DE093E02150804041
:101260009040E1F700C000000E94D706CF5FC83071
:1012700051F785E090E00E948F0781E090E0909325
:10128000B1028093B0020FC00E94D7060E94570897
:1012900081E090E09093AF028093AE0204C0109280
:1012A000AF021092AE02CF9108958230910511F1F4
:1012B0002CF4009749F0019791F02BC084309105F0
:1012C000F1F0069709F125C00E94D70660E083E09F
:1012D0000E94E10684E992E00E940F0708950E94AF
:1012E000D70660E083E00E94E1068BE992E00E946D
:1012F0000F0708951092AF021092AE020895109257
:10130000AF021092AE0208951092AF021092AE0298
:1013100008950E9457080895C49A0895C49808959E
:1013200080EB87BB81E58DB90E948C0908958FB948
:10133000779BFECF08958FEF8FB9779BFECF8FB14C
:101340000895CF93C82F0E948E0983E00E949709C9
:101350008C2F0E9497090E949B09C82F0E948C091C
:101360008C2FCF910895CF93DF93D82FC62F0E9453
:101370008E0982E00E9497098D2F0E9497098C2F79
:101380000E9497090E948C09DF91CF910895CF9315
:10139000C82F0E948E09C13041F028F0C23039F0C8
:1013A000C33039F008C081E807C082E805C084E88E
:1013B00003C087E801C080E00E9497090E948C0961
:1013C000CF910895CF930E948E0980EA0E949709D9
:1013D0000E949B09C82F0E948C098C2FCF910895E1
:1013E0001F93CF93DF93182FC62FD42F0E948E09FF
:1013F00085E00E949709812F0E9497098D2F0E94F6
:1014000097098C2F0E9497090E948C09DF91CF9138
:101410001F9108950E948E0980EC0E9497090E94F6
:101420008C0908950E9490090E940A0A89EF90E0B1
:101430000197F1F700C000000895803459F018F4C6
:10144000803231F00DC0803639F0803839F008C074
:1014500060E207C060E405C060E603C060E801C068
:1014600060E040EE8FE00E94F009089580E80E945D
:101470001D0A63EC8AE20E94B3096BE989E20E94CB
:10148000B30963E088E20E94B30908958EE00E94E8
:10149000A109807E08950E94120A0895CF92DF92DA
:1014A000EF92FF921F93CF93DF936C01FC01608159
:1014B00066956695669581E30E94B309F6016081A1
:1014C000F0E26F9FB001112482E30E94B309F6019C
:1014D000618185E30E94B309F60181818823A9F027
:1014E0007601F2E0EF0EF11C16E3C0E0D0E0F70168
:1014F00061917F01812F0E94B30921961F5FF60140
:10150000818190E0C817D90794F380E00E94C70951
:10151000DF91CF911F91FF90EF90DF90CF900895D2
:101520009F92AF92BF92CF92DF92EF92FF920F9372
:101530001F93CF93DF93CDB7DEB72A970FB6F894FA
:10154000DEBF0FBECDBF5C01FE0131968AE0DF0138
:101550001D928A95E9F782E60E94A109082F81E68B
:101560000E94A109029506950770880F880F880FC1
:10157000080F85E60E94A109982E8823A9F07E0114
:10158000B3E0EB0EF11C9E01280F311DF9013396DB
:101590006F0116E6812F0E94A109D7018D937D016D
:1015A0001F5FAC15BD05B1F709839A828AE0FE0181
:1015B0003196D50101900D928A95E1F7C5012A96E1
:1015C0000FB6F894DEBF0FBECDBFDF91CF911F9154
:1015D0000F91FF90EF90DF90CF90BF90AF909F90D2
:1015E000089597FB072E16F4009407D077FD09D0D5
:1015F0000E94140B07FC05D03EF4909581959F4FF7
:101600000895709561957F4F0895A29FB001B39F93
:10161000C001A39F700D811D1124911DB29F700DFB
:10162000811D1124911D0895AA1BBB1B51E107C008
:10163000AA1FBB1FA617B70710F0A61BB70B881F62
:10164000991F5A95A9F780959095BC01CD010895F1
:101650008F929F92AF92BF92CF92DF92EF92FF92C2
:10166000CF93DF93EC01688179818A819B81611539
:1016700071058105910521F464E279ED8BE597E030
:101680002DE133EF41E050E00E94EA0F49015A0199
:101690009B01AC01A7EAB1E40E9409106B017C0137
:1016A000ACEEB4EFA50194010E941710DC01CB0150
:1016B0008C0D9D1DAE1DBF1DB7FF03C00197A10975
:1016C000B04888839983AA83BB839F77DF91CF91AA
:1016D000FF90EF90DF90CF90BF90AF909F908F9052
:1016E00008950E94280B089584E091E00E94280B41
:1016F0000895A0E0B0E08093040190930501A093C9
:101700000601B093070108950F931F93CF93DF93C2
:10171000009731F46115710519F480E090E03AC04A
:101720008B01EC016EE070E081E090E00E94F60D2C
:10173000FC01892B91F380E883830115110571F079
:101740001387028781E883838091B2029091B3026C
:10175000892B21F4F093B302E093B2022097C9F0F1
:10176000D187C0878381826083838091B402909106
:10177000B502892B71F4F093B502E093B402809125
:10178000B6029091B702892B21F4F093B702E0934F
:10179000B602CF01DF91CF911F910F910895A0E084
:1017A000B0E0E5EDFBE00C942C10AE014B5F5F4F19
:1017B000FA0161917191AF018091B4029091B502EB
:1017C0000E94150CE2E00C9448100F931F93CF93E6
:1017D000DF93E091B402F091B502238121FF1BC099
:1017E0008C01D0E0C0E0F80181918F016091B402DA
:1017F0007091B502DB011896ED91FC911997882341
:1018000031F00995892B79F3DFEFCFEFECCF8AE048
:101810000995892B19F08FEF9FEF02C08D2F9C2F18
:10182000DF91CF911F910F910895ABE0B0E0EBE114
:10183000FCE00C941C106C017B018A01FC011782F6
:101840001682838181FFCCC1CE0101963C01F60155
:101850009381F70193FD859193FF81917F01882307
:1018600009F4BAC1853239F493FD859193FF8191D2
:101870007F01853229F4B60190E00E94500FE7CF36
:10188000912C212C312CFFE1F315D8F08B3279F01B
:1018900038F4803279F08332A1F4232D20611DC009
:1018A0008D3261F0803369F4232D216016C0832DC1
:1018B0008260382EE32DE4603E2E2AC0F32DF860BE
:1018C0001DC037FC2DC020ED280F2A3040F08E328D
:1018D000B9F436FC81C1232D2064322E19C036FEA6
:1018E00006C08AE0989E200D1124922E11C0EAE0D5
:1018F0002E9E200D1124222EF32DF0623F2E08C0C3
:101900008C3621F4832D8068382E02C0883641F44D
:10191000F70193FD859193FF81917F018111B3CFF1
:10192000982F9F7D9554933028F40C5F1F4F9FE3B1
:1019300099830DC0833631F0833771F0833509F018
:1019400059C021C0F801808189830E5F1F4F882410
:101950008394912C530113C02801F2E04F0E511CC7
:10196000F801A080B18036FE03C0692D70E002C08E
:101970006FEF7FEFC5010E94450F4C018201F32DEF
:10198000FF773F2E16C0280122E0420E511CF801BD
:10199000A080B18036FE03C0692D70E002C06FEFF9
:1019A0007FEFC5010E94330F4C01F32DF0683F2EED
:1019B000820133FC1BC0822D90E088169906B0F49A
:1019C000B60180E290E00E94500F2A94F4CFF50116
:1019D00037FC859137FE81915F01B60190E00E944E
:1019E000500F21102A9421E0821A91088114910449
:1019F00071F7E8C0843611F0893641F5F80137FEF9
:101A000007C060817181828193810C5F1F4F08C084
:101A100060817181072E000C880B990B0E5F1F4FA0
:101A2000F32DFF763F2E97FF09C090958095709516
:101A300061957F4F8F4F9F4FF0683F2E2AE030E037
:101A4000A3010E948C0F882E861845C0853731F47B
:101A5000232D2F7EB22E2AE030E025C0932D997FD2
:101A6000B92E8F36C1F018F4883579F0B5C08037BB
:101A700019F0883721F0B0C0E92FE061BE2EB4FE26
:101A80000DC0FB2DF460BF2E09C034FE0AC0292F03
:101A90002660B22E06C028E030E005C020E130E02C
:101AA00002C020E132E0F801B7FE07C06081718119
:101AB000828193810C5F1F4F06C06081718180E03D
:101AC00090E00E5F1F4FA3010E948C0F882E861896
:101AD000FB2DFF773F2E36FE0DC0232D2E7FA22E2D
:101AE000891458F434FE0BC032FC09C0832D8E7E5D
:101AF000A82E05C0B82CA32C03C0B82C01C0B92C4B
:101B0000A4FE0FC0FE01E80DF11D8081803321F499
:101B10009A2D997EA92E09C0A2FE06C0B394B39453
:101B200004C08A2D867809F0B394A3FC11C0A0FEEE
:101B300006C0B21488F4280C922C9B180EC0B21464
:101B400060F4B60180E290E00E94500FB394F7CFAA
:101B5000B21418F42B1802C0982C212CA4FE10C02B
:101B6000B60180E390E00E94500FA2FE17C0A1FCD6
:101B700003C088E790E002C088E590E0B6010CC0A1
:101B80008A2D867859F0A1FE02C08BE201C080E266
:101B9000A7FC8DE2B60190E00E94500F891438F442
:101BA000B60180E390E00E94500F9A94F7CF8A9498
:101BB000F301E80DF11D8081B60190E00E94500F05
:101BC0008110F5CF222009F442CEB60180E290E0E8
:101BD0000E94500F2A94F6CFF6018681978102C0A9
:101BE0008FEF9FEF2B96E2E10C9438100F931F9329
:101BF000CF93DF93869F8001879F100D969F100DD6
:101C00001124C8010E94120EEC01009729F0A801CE
:101C100060E070E00E943E0FCE01DF91CF911F91F6
:101C20000F9108950F931F93CF93DF938230910507
:101C300010F482E090E0E091BA02F091BB0220E063
:101C400030E0A0E0B0E0309719F14081518102818D
:101C5000138148175907C8F08417950769F410973E
:101C600031F012960C93129713961C9327C0009391
:101C7000BA021093BB0222C02115310519F0421798
:101C8000530718F49A01BD01EF01DF01F801DBCF22
:101C900021153105F9F0281B390B2430310580F46A
:101CA0008A819B816115710521F0FB0193838283F9
:101CB00004C09093BB028093BA02FE01329644C0E6
:101CC000FE01E20FF31F8193919322503109398372
:101CD00028833AC02091B8023091B902232B41F4F5
:101CE00020910A0130910B013093B9022093B80280
:101CF00020910801309109012115310541F42DB7DA
:101D00003EB740910C0150910D01241B350BE09121
:101D1000B802F091B902E217F307A0F42E1B3F0BB3
:101D20002817390778F0AC014E5F5F4F241735074D
:101D300048F04E0F5F1F5093B9024093B802819351
:101D4000919302C0E0E0F0E0CF01DF91CF911F91CD
:101D50000F910895CF93DF93009709F481C0FC01A0
:101D6000329713821282A091BA02B091BB021097EF
:101D700081F420813181820F931F2091B80230912C
:101D8000B9022817390751F5F093B902E093B80268
:101D900067C0ED0120E030E0CE17DF0740F44A8154
:101DA0005B819E0141155105F1F0EA01F5CFD38326
:101DB000C28340815181840F951FC817D90759F4F8
:101DC00088819981840F951F0296918380838A81EF
:101DD0009B81938382832115310529F4F093BB0203
:101DE000E093BA023DC0E901FB83EA83499159912E
:101DF000C40FD51FEC17FD0761F480819181840F1A
:101E0000951F0296E90199838883828193819B8340
:101E10008A83E0E0F0E012968D919C9113970097F1
:101E200019F0FD01DC01F7CF8D919C9111979D0177
:101E30002E5F3F4F820F931F2091B8023091B9025D
:101E40002817390769F4309729F41092BB021092D1
:101E5000BA0202C013821282B093B902A093B802F0
:101E6000DF91CF910895FC01059061507040011001
:101E7000D8F7809590958E0F9F1F0895DC0101C0C3
:101E80006D9341505040E0F70895FC01615070405F
:101E900001900110D8F7809590958E0F9F1F08959F
:101EA0000F931F93CF93DF93FB01238121FD03C089
:101EB0008FEF9FEF2CC022FF16C0468157812481EF
:101EC00035814217530744F4A081B1819D012F5FF2
:101ED0003F4F318320838C93268137812F5F3F4F83
:101EE0003783268314C08B01EC01FB010084F1854C
:101EF000E02D0995892BE1F6D80116968D919C91DC
:101F00001797019617969C938E931697CE01DF91A3
:101F1000CF911F910F910895FA01AA27283051F10E
:101F2000203181F1E8946F936E7F6E5F7F4F8F4F0A
:101F30009F4FAF4FB1E03ED0B4E03CD0670F781F69
:101F4000891F9A1FA11D680F791F8A1F911DA11D4E
:101F50006A0F711D811D911DA11D20D009F4689487
:101F60003F912AE0269F11243019305D3193DEF62F
:101F7000CF010895462F4770405D4193B3E00FD0E5
:101F8000C9F7F6CF462F4F70405D4A3318F0495DD0
:101F900031FD4052419302D0A9F7EACFB4E0A695B3
:101FA0009795879577956795BA95C9F700976105D5
:101FB000710508959B01AC010A2E0694579547952B
:101FC00037952795BA95C9F7620F731F841F951F20
:101FD000A01D0895052E97FB1EF400940E94011089
:101FE00057FD07D00E94531007FC03D04EF40C9409
:101FF000011050954095309521953F4F4F4F5F4FC1
:10200000089590958095709561957F4F8F4F9F4F64
:1020100008950E94050BA59F900DB49F900DA49F5D
:10202000800D911D11240895B7FF0C9409100E9492
:102030000910821B930B08952F923F924F925F924B
:102040006F927F928F929F92AF92BF92CF92DF92C8
:10205000EF92FF920F931F93CF93DF93CDB7DEB72D
:10206000CA1BDB0B0FB6F894DEBF0FBECDBF0994C1
:102070002A88398848885F846E847D848C849B8418
:10208000AA84B984C884DF80EE80FD800C811B8126
:10209000AA81B981CE0FD11D0FB6F894DEBF0FBE55
:1020A000CDBFED010895A1E21A2EAA1BBB1BFD01B5
:1020B0000DC0AA1FBB1FEE1FFF1FA217B307E40727
:1020C000F50720F0A21BB30BE40BF50B661F771F7F
:1020D000881F991F1A9469F760957095809590955F
:0E20E0009B01AC01BD01CF010895F894FFCF24
:1020EE0000120010010000000000BC0220004D652F
:1020FE0073736167652072656369657665640D004B
:10210E0049443A2025640D0A004C656E6774683A9E
:10211E002025640D0A00446174613A2025730D0A6E
:10212E00006D657373616765732073656E74200A45
:10213E000D002564005374617274696E67205352EA
:10214E00414D20746573742E2E2E0A0D0057726940
:10215E007465207068617365206572726F723A20C3
:10216E006578745F72616D5B2534645D203D20007F
:10217E00202873686F756C642062652000204D699D
:10218E00736D6174636865642062697473200029DD
:10219E000A0D0052657472696576616C2070686113
:1021AE007365206572726F723A206578745F726122
:1021BE006D5B2534645D203D20005352414D2074EB
:1021CE0065737420636F6D706C65746564207769D8
:1021DE007468200A0D253464206572726F72732044
:1021EE00696E20777269746520706861736520610D
:1021FE006E64200A0D253464206572726F7273202E
:10220E00696E2072657472696576616C20706861A2
:10221E0073650A0A0D004C69766573206C656674E9
:10222E003A200050696E672D706F6E672047616DA2
:10223E0065210053746172742067616D650053658A
:10224E006C65637420646966666963756C74790085
:10225E0043686F6F736520446966666963756C7455
:10226E00793A0045617379004D656469756D004872
:10227E006172640054726F696B61004A6170700024
:0E228E0047616D652073746172746564210090
:00000001FF
